:020000040800F2
:100000004007002035020008AB2D00082D2900080C
:10001000A92D0008A11B0008152E000800000000F3
:10002000000000000000000000000000AF2D0008EC
:10003000A31B000800000000AD2D0008B12D000832
:100040004F0200084F0200084F0200084F0200084C
:100050004F0200084F0200084F0200084F0200083C
:100060004F0200084F0200084F0200084F0200082C
:100070004F0200084F0200084F0200084F0200081C
:100080004F0200084F0200084F0200084F0200080C
:100090004F0200084F0200084F0200084F020008FC
:1000A0004F0200084F0200084F0200084F020008EC
:1000B0004F0200084F0200084F0200084F020008DC
:1000C0004F0200084F0200084F0200084F020008CC
:1000D0004F0200084F0200084F0200084F020008BC
:1000E0004F0200084F0200084F02000800F002F81B
:1000F00000F090F80AA090E8000C82448344AAF132
:100100000107DA4501D100F085F8AFF2090EBAE82F
:100110000F0013F0010F18BFFB1A43F0010318473B
:10012000E838000008390000103A24BF78C878C1C8
:10013000FAD8520724BF30C830C144BF04680C60ED
:10014000704700000023002400250026103A28BF35
:1001500078C1FBD8520728BF30C148BF0B60704739
:100160006E2900F09C82702900F0FD83662903F05F
:10017000A583652903F0A283672903F09F83612982
:1001800003F09E8303681B0A28BF41F080016929A0
:1001900000F0F080642900F0ED80752900F0EA801D
:1001A0006F2900F08A83782900F0C983E92900F0DB
:1001B0002583E42900F02283F52900F01F83EF292D
:1001C00000F08783F82900F0C8830368DB0928BFA3
:1001D00041F08001632900F0A682732900F0AB8210
:1001E000E32900F0A787F32900F0AC8700207047CF
:1001F0001FB500F0F9FF04000020002103F048FBC8
:10020000401C60600020002103F02CFBE0601FBD5B
:1002100010B510BD00F0BAFF1146FFF7E9FF03F07B
:100220003DF901F097F803B4FFF7F2FF03BC01F0CA
:10023000DFF800000948804709480047FEE7FEE76D
:10024000FEE7FEE7FEE7FEE7FEE7FEE7FEE7FEE786
:1002500004480549054A064B70470000132E000864
:10026000ED0000084001002040070020400300206E
:10027000400300207CB51D4616460C00009001D0BE
:100280002044401E074B7B442A4669460190304675
:1002900000F01FFA05461CB10020694600F02CFA58
:1002A00028467CBD790400000FB41CB5084B06AA93
:1002B0007B4469460090059800F00BFA0446002044
:1002C000694600F019FA20461CBC5DF814FB0000DA
:1002D0004504000070B5044685690068C10601D573
:1002E000302600E02026C00707D070BDD4E90121E8
:1002F00030469047206A401C20626D1EF6D570BDC6
:1003000070B5044685690078C00707D170BDD4E98F
:10031000012120209047206A401C20626D1EF6D5E6
:1003200070BD70B50C460546012A05D028788006B8
:1003300000D5EA69002302E0012305E05B1C93423B
:1003400002D2E05C0028F9D1A869E618C01AA861B9
:10035000286A184428622846FFF7BCFF04E0D5E964
:10036000012114F8010B9047B442F8D32846FFF757
:10037000C7FF70BD2DE9F0410646002410687529BD
:10038000314616A510D000F01FF9002802DA4042CD
:1003900013A507E031688A0701D512A502E04907D5
:1003A00004D511A5012401E000F017F900210A226B
:1003B00006F1240709E0B0FBF2FCB0FBF2F302FB0C
:1003C0001C00303078541846491C0028F3D12346CD
:1003D0002A463046BDE8F04100F008B900000000B0
:1003E0002D0000002B000000200000002DE9F05F30
:1003F000894604464FF0000ADFF874B1FB44C0F8A8
:1004000020A02046E1688847002874D0252806D01F
:10041000D4E901219047206A401C2062F1E70026C0
:100420005F462046E16888472028054607DB312DD6
:1004300005D2781910F8200C08B10643F1E7B0078F
:1004400001D526F00406C4F81CA00027C4F818A0A3
:100450002A2D09D0284602F002FD38B304EB8708A4
:10046000303DC8F8185019E059F8041B204604EB39
:1004700087029161E1688847012F054618D1E0693C
:10048000002820DA26F020061DE0D8F8180000EB3E
:10049000800005EB40003038C8F818002046E168BD
:1004A0008847054602F0DBFC0028EED1012F0AD078
:1004B0002E2D08D12046E16888477F1C0546022F73
:1004C00046F02006C4DBA069002803DA404246F06B
:1004D0000106A061F00701D026F010066C2D0BD0AC
:1004E000682D09D04C2D39D06A2D35D0742D35D0DA
:1004F0007A2D33D016E038E0E1682F462046884751
:10050000B842054609D16C2F26D04FF48060E168CF
:10051000064320468847054604E06C2F1AD04FF466
:10052000807006430DB3A5F14100192802D820358B
:1005300046F400664A462946204626604E46FFF7A6
:100540000FFE80B101280BD0F61D26F0070000F148
:10055000080956E74020E4E78020D8E70020D6E7E6
:1005600006F104094DE7284652E7206ABDE8F09FEE
:100570000A3500004FF0000200B513469446964637
:10058000203922BFA0E80C50A0E80C50B1F12001A6
:10059000BFF4F7AF090728BFA0E80C5048BF0CC054
:1005A0005DF804EB890028BF40F8042B08BF7047B2
:1005B00048BF20F8022B11F0804F18BF00F8012B24
:1005C000704770477047704709684A0501D540B2C7
:1005D0007047C905FCD500B2704709684A0501D5C6
:1005E000C0B27047C905FCD580B270472DE9F0470D
:1005F0000D4699469246044600F124080168880693
:1006000004D5E06921F01001216000E00120A8423A
:1006100001DD471B00E00027A1697A1902EB090000
:10062000081AA0612078C00602D42046FFF752FEC7
:10063000002608E0D4E901211AF806009047206A54
:10064000401C761C20624E45F4DB2078C0060AD59B
:100650002046FFF73FFE06E0D4E901213020904715
:10066000206A401C2062381EA7F10107F4DC07E075
:10067000D4E9012118F805009047206A401C206247
:10068000281EA5F10105F3DC2046FFF739FE20788E
:10069000000602D50220BDE8F0870120FBE71168C3
:1006A0000268006A530501D508700AE0D30501D538
:1006B000088006E0130603D5C217C1E9000200E076
:1006C000086001207047000001694A1C0261087837
:1006D000704700B58FB0CDE9013100210591054982
:1006E0007944CDE9031011466846FFF77FFE0FB04D
:1006F00000BD0000E5FFFFFF0A6802F8010B0A6079
:100700007047D1E900239A4202D2531C0B6010704B
:10071000704710B5436913B1AFF3008001E0FFF7F4
:1007200000FE012010BD127800F124010A700022A1
:100730004A700122EDE711684FF0FF32E9E700004F
:100740002DE9FF5F15468A460446DFF8AC80F84481
:100750000027D8E900103E46CDE9001010E03AF835
:1007600016106A4602A800F0F1FC411C07D021785F
:10077000890603D5E269391891420DD80744761CE1
:100780002078800602D5E069B84205DDAE42E6DB9E
:100790003AF816000028E2D1A069C01BA0612046EB
:1007A000FFF798FDD8E90010CDE90010002017E010
:1007B0003AF818106A4602A800F0C8FCB0F1FF3FF2
:1007C00081460BD000250DF1080B05E0D4E901218D
:1007D0001BF8050090476D1C4D45F7D308F101004B
:1007E000B0428046E4DB206A384420622046FFF7AE
:1007F00087FDBDE8FF9F0000CA3100002DE9F041F0
:100800008046D21D22F007020025D2E90002F52918
:1008100015A614D0011E72F1000106DA0023D0EBF8
:10082000030063EB020211A608E0D8F800108B0762
:1008300001D50FA602E0490701D50EA601251146F4
:10084000002408F1240704E000F098F830323A550B
:10085000641C50EA0102F7D12B463246214640463D
:10086000BDE8F041FFF7C2BE000000002D0000000F
:100870002B0000002000000030B4002100F124040F
:1008800008E002F00705D208303542EA4372DB087F
:100890006554491C52EA0305F3D10468002310A2F1
:1008A000250707D5A40600D421B1C46901230DA2F0
:1008B000641EC46130BCFFF799BE10B504462146E2
:1008C0001068FFF78AFE02462046BDE8104000236C
:1008D000D2E7D21D22F00701D1E90023CCE70000C6
:1008E0000000000030000000F0B40D46018809054A
:1008F00002D5214C7C4402E01F4C7C440E34002184
:1009000000F1240608E002F00F071209E75D42EA51
:1009100003721B097754491C52EA0307F3D102788A
:100920000023120704D5702D06D009B1022311341B
:100930002246F0BCFFF75ABE01231034F8E770B529
:1009400004460D4621461068FFF747FE0246294639
:100950002046BDE870400023C6E7D21D22F0070301
:10096000D3E90023C0E70368126843F02003036063
:100970000823C3610023B7E72C30000030B5B0F185
:100980000A024FEA900E71F100034EEA817EB0EB4D
:100990000E0061EB91014FEA101E4EEA017E10EB52
:1009A0000E0041EB11114FEA102E4EEA016E10EBD2
:1009B0000E0041EB11214FEA104E4EEA014E10EBB2
:1009C0000E0041EB1141401841F100014FEAD00007
:1009D00040EA41704FEAD10110EB80054FEA8104F3
:1009E00044EA907444EB01046D1944EB0404521B77
:1009F000A3414FF0000348BF0A3200D530BD401C70
:100A000041F1000130BD70472DE9FF4F0C461E46F5
:100A10004FF0FF378BB0D2E90001DDF860800A901B
:100A20008A46C1F30A5505B93D46002108464FF0F4
:100A30000000BAF1000F00F4400005DA00EB80007E
:100A40004FF4400101EA50004FEA9059B9F1010F0B
:100A500000DDB9460A9850EA4A000ED044F610501C
:100A6000A5F2FF3545432F14B8F1000F1ED0754293
:100A7000291E1EDDC9F100021CE0B8F1010F4FF084
:100A8000000001D0302103E0F24305E02154401C76
:100A9000B042FBDB30460022002121540B99C1F803
:100AA0000880C1E900200FB0BDE8F08FBD1B6D1CB0
:100AB000DEE74A4600DA694206A800F0D9FB06AB39
:100AC00093E8070003AB83E8070050460A9900F05B
:100AD00096FC8DE80700A0F500501F3800900398A1
:100AE000002D0ADD42F21F014A460844002303A9F3
:100AF0000390684600F0FFFE09E0A0F500504A466A
:100B00001F38002303A90390684600F009FF8DE811
:100B100007000004000C03D04FF0FF30410800E054
:100B20001046B8F1000F03D00022009215461EE0D7
:100B3000751E05D4FFF722FF303262556D1EF9D5C0
:100B4000B3460122084302D000227F1C04E0207833
:100B5000302801D100227F1E002A099784D01DE091
:100B6000112D07DAFFF70AFF303262556D1C50EA8B
:100B70000102F5D1084302D00098C8B10EE000216F
:100B8000681E05E0235C625C63542254401E491CCD
:100B90008142F7DBAB46A81B401E0990002004F8F9
:100BA0000B000B98099AC0F80880C0E9002B7AE77F
:100BB00011264FF0000857E72DE9F04F884604460C
:100BC000D21D22F0070191B0D1E90001CDE90A015F
:100BD00002F021F902460B98C00F01D02D2007E04A
:100BE0002068810701D52B2002E0202101EAC00006
:100BF000032A099001D0072A05DB03464146204617
:100C000000F0F6FA0BE12078800601D5E06900E0FB
:100C10000620B8F1650F814606D0B8F1660F18D0EE
:100C2000B8F1670F70D131E00020B9F1110F0090D9
:100C300001DB112301E009F101030AAA01A90CA8B3
:100C4000FFF7E2FEDDE90C70002609F1010583469D
:100C500047E001204B4600904FF000470AAA01A947
:100C60000CA8FFF7D1FEDDE90DB00C995D4600261A
:100C700010B909F101000D18B9EB050003D4C0F15A
:100C8000FF3609F10105A5EB09002BE0B9F1010FD1
:100C900001DA4FF001090020B9F1110F0090484628
:100CA00001DD112300E003460AAA01A90CA8FFF701
:100CB000ABFEDDE90C704D46002683462078000728
:100CC0000AD4AB4500DA5D4601A8012D04DD4119C7
:100CD00011F8011C302907D04F4502DA17F1040F33
:100CE00004DA012082460FE06D1EEEE7002F02DCE1
:100CF000ED1B3E4403E0781CA84200DD7D1CB81BC0
:100D000000F1010A4FF000472078000703D4AA45FC
:100D100001DB4FF0FF3A0021B7F1004F0DF143081E
:100D20008DF8431024D002202B23002F01DA7F42BC
:100D30002D230A21021EA0F1010000DC5FB197FB08
:100D4000F1FC97FBF1F201FB1C7C17460CF1300C17
:100D500008F801CDEEE7A8F101000370218809052C
:100D600001D5452100E06521A0F1010800F8011C32
:100D700009980FA9A1EB0807FF1D00B10120411937
:100D800001EBEA70A1693844081A401EA06120787E
:100D9000C00602D42046FFF79DFA099828B1D4E98D
:100DA00001219047206A401C20622078C00622D58D
:100DB0002046FFF78FFA1EE0002E04DBB34502DD6C
:100DC00001A8805D00E03020D4E901219047206A2D
:100DD000401C2062761CAAF101005FEA000A0AD1D9
:100DE00000F002FAC0680168405CD4E90121904734
:100DF000206A401C2062281EA5F10105DCDC07E00A
:100E0000D4E9012118F8010B9047206A401C2062A8
:100E1000381EA7F10107F3DC2046FFF771FA032023
:100E200011B041E62DE9F04F04460D46D21D22F0E7
:100E3000070089B0D0E900974846394601F0EBFF3A
:100E40000246F80F01D02D2307E02068810701D565
:100E50002B2302E0202101EAC0038DF820300BB1E2
:100E6000012000E00020032A824601D0072A04DB8B
:100E70002946204600F0BCF93FE12078800601D4E5
:100E80000D2500E0E569C7F30A560D2D49DA00216A
:100E90004FEA175B08464FF00000002F00F44000B7
:100EA00007DA00EB80004FF4400100EBD07001EA5C
:100EB00060008115012901DD4FF0FF3100224FEA6A
:100EC000850CBCF1180F06D31346ACF118004FF097
:100ED0008052C24003E04FF4801323FA0CF30CF16C
:100EE0000C0CBCF1200F04D3ACF1200C09FA0CF06F
:100EF00001E007FA0CF000294FF0004801DD18B9B5
:100F00000FE00ED140450CD319EB02095F4121B926
:100F1000404502D19F4329EA0209BBEB175F00D08D
:100F2000761C2088000502D57B48784402E07A4888
:100F30007844193808AA302302F80A30037C0AF1F1
:100F40000101002E0AF1020A53546A4602DC4FF0F6
:100F5000300101E04FF031014FF001088DF8001031
:100F600002D0A6F2FF3603E059EA470100D06B4EEB
:100F7000002D02DC2178090704D54FF002082E214C
:100F80008DF80110C44600210BE0C7F303433F0175
:100F9000C35C491C6D1E02F80830052908F10108E0
:100FA00001DA002DF1DC00210CE000EB1973491C83
:100FB0001B786D1E082902F808304FEA091908F15C
:100FC000010801DA002DF0DC21688B0602D516E05D
:100FD000A8F10108E04505DD02EB080313F8013C28
:100FE000302BF5D0B8F1000F09DD02EB080313F840
:100FF000013C2E2B03D1090701D4A8F10108002DD3
:1010000005DD3E2102F808106D1E08F10108407C44
:10101000002E02F8080008F1010804DA2D207642BB
:1010200002F8080002E02B2002F808000A214FF421
:101030007A70864208F101080BDB96FBF0F330333F
:1010400002F8083096FBF0F308F1010800FB136684
:1010500001E0642E0CDB642096FBF0F3303302F8E1
:10106000083096FBF0F308F1010800FB136601E07D
:101070000A2E06DB96FBF1F0303002F8080008F18A
:10108000010896FBF1F001FB1060303002F8080017
:10109000A16908F1010808EB050202EB0A00081A31
:1010A000A0612078C00602D42046FFF713F9216A18
:1010B00008AE01EB0A00206204E0D4E9012116F831
:1010C000010B9047BAF1010AF7D22078C00602D589
:1010D0002046FFF7FFF86E4609E016F8010B3E28A0
:1010E0000FD0D4E901219047206A401C2062B8F15A
:1010F0000108F2D22046FFF703F909B00320BDE84A
:10110000F08F206A2844206203E0D4E901213020D6
:1011100090476D1EEBD3F8E7312A000002FCFFFF79
:1011200010B5436913B1AFF3008001E0FFF708FB8E
:10113000012010BD128800F1240182840022C284A3
:101140000122EDE711684FF0FF32E9E770B516466E
:101150000C46054600F040F8036893F801010128A9
:1011600006D0FF2C0FD8185D68B101202C7070BD1F
:10117000D3F807013246214603F2071303442846F9
:10118000BDE8704018474FF0FF3070BD754600F065
:10119000EBF8AE4605006946534620F00700854649
:1011A00018B020B5FFF754F8BDE820404FF0000616
:1011B0004FF000074FF000084FF0000B21F007013F
:1011C000AC46ACE8C009ACE8C009ACE8C009ACE882
:1011D000C0098D467047000010B500F005F8001DED
:1011E00010BD00BFAD26000000487047FC00002085
:1011F0002DE9F0411F46044603260168072A01F441
:10120000006004DB08B116A505E016A503E008B1EF
:1012100015A500E015A521F010002060A069C01EF2
:10122000A0610FB1401EA0612046FFF753F84FB1F7
:10123000D4E9012138469047206A401C2062C01C36
:10124000206206E0206AFAE7D4E9012115F8010BD3
:101250009047761EF8D22046FFF752F8BDE8F0819D
:101260004E414E006E616E00494E4600696E66004A
:101270002DE9F047814616468AB0354878440DC8B6
:101280008DE80D0032487844801C03AC0DC884E81A
:101290000D0041F69B300844372190FBF1F290FBA2
:1012A000F1F5A5F1800501FB12041B3C02D5644257
:1012B000012000E00020DFF898A080460027FA44D3
:1012C000AAF1BE0A0EE0E0070AD03246684607EBF4
:1012D000470101230AEB810100F022FB8DE80700A2
:1012E00064107F1C002CEED1194F7F44AE3F19E0F3
:1012F000E80715D007EB04100DF1180A90E80E006E
:101300008AE80E00C068F04201D198190890324670
:10131000012306A903A800F003FB03AB83E8070041
:101320006D10641C002DE3D14FF001033246694675
:10133000B8F1000F03A802D000F0DDFA01E000F0E0
:10134000EFFAC9E90001C9F808200AB0BDE8F08742
:101350007027000010B50446AFF300802046BDE8BA
:101360001040FEF760BF000000487047DC0000201E
:101370004FF0013C50F8042B51F8043B9A4221D124
:10138000A2EB0C03934313EACC1317D150F8042BB0
:1013900051F8043B9A4215D1A2EB0C03934313EA94
:1013A000CC130BD150F8042B51F8043B9A4209D1CD
:1013B000A2EB0C03934313EACC13DBD04FF00000F5
:1013C000704700BFD01A01BAB1FA81F101F01801DB
:1013D00022FA01F0CB40C1F12001DBB2C0B2C01A49
:1013E0002CFA01F3D11A914311EAC311E6D17047E7
:1013F00001491820ABBEFEE72600020070475FEAF5
:10140000400C08BF91F0000F4FEA8C234FEAC12235
:1014100043EA51514FEA1C5018BF00F5F0404FEA23
:10142000300018BF41F000415FEA6C5C00F0298099
:10143000BCF1FF3F08BF40F080407047130C06BF6F
:1014400012044FF0100C4FF0000C130E04BF1202E8
:101450000CF1080C130F04BF12010CF1040C930FD4
:1014600004BF92000CF1020CD30F04BF52000CF128
:10147000010C11464FF00002A0F11F00A0EB0C0080
:10148000704711F0004F08BF704731F000413FF442
:10149000D5AF0B0C06BF09044FF0100C4FF0000C39
:1014A0000B0E04BF09020CF1080C0B0F04BF09015D
:1014B0000CF1040C8B0F04BF89000CF1020CCB0F54
:1014C00004BF49000CF1010CCCF12003A0EB0C008F
:1014D00022FA03F302FA0CF241EA030100F10100DF
:1014E000704720F07F4C80EA030023F07F47ACEB8D
:1014F000070303F57C5300F0004003F1FF032DE9DF
:1015000080494FEA154B09B44FEA144325EA0B4EC4
:1015100024EA03480FF2042606EB132749083E7815
:101520005FEA320203FB0667C7F5000707FB06F612
:101530004FEA54374FEAD64606F1020607FB066C1F
:10154000CCF1005C4FEA1C472CEA074C07FB06F481
:101550000CFB06F504EB15464FEA961634BF002047
:101560004FF000404FEAD13706FB07FC4FEA1C4C16
:101570000CFB0BF7D21B03FB0CF761EB07010CFB19
:101580000EF7B0EB074072EB17420CFB08F734BFC5
:10159000A2EB0742B2EB074261EB17414FEA0C4462
:1015A0004FEA910706FB07FC4FEA1C4C0CFB0BF7BC
:1015B000B0EBC74072EB573203FB0CF734BFA2EB22
:1015C000C742B2EBC74261EB57310CFB0EF7B0EBF1
:1015D000C70072EB57720CFB08F734BFA2EBC702CF
:1015E000B2EBC70261EB5771039F4FEA816141EA99
:1015F000921104EBCC044FEAD1374FEA826206FB2A
:1016000007FC42EA90124FEA80604FEA1C4C0CFB48
:101610000BF7D21B03FB0CF761EB07010CFB0EF77A
:10162000B0EB074072EB17420CFB08F734BFA2EB9C
:101630000742B2EB074261EB17414FEA8C554FEA84
:10164000910704EB9C2406FB07FC4FEA1C4C0CFBA7
:101650000BF7B0EBC74072EB573203FB0CF734BF0C
:10166000A2EBC742B2EBC74261EB57310CFB0EF75E
:10167000B0EBC70072EB57720CFB08F734BFA2EB5C
:10168000C702B2EBC70261EB577115EB4C254FEA6D
:10169000816141EA92114FEA82624FEAD13742EA10
:1016A000901206FB07FC44F100044FEA80604FEA09
:1016B0001C4C0CFB0BF7D21B03FB0CF761EB070177
:1016C0000CFB0EF7B0EB074072EB17420CFB08F770
:1016D00034BFA2EB0742B2EB074261EB174115EBB7
:1016E0001C154FEA813141EA92414FEA823242EAC7
:1016F00090424FEA80304FEA0C7644F1000448EA09
:1017000003434EEA0B484FF0000EB2EB080C71EBAE
:10171000030724BF624639464EEB0E0E4FF0000B16
:101720000018524149414BEB0B0BB2EB080C71EB2B
:1017300003077BF1000B24BF624639464EEB0E0EC9
:101740004FF0000B0018524149414BEB0B0BB2EB31
:10175000080C71EB03077BF1000B24BF624639468E
:101760004EEB0E0E51EA020718BF46F0010616EBCB
:101770000E7655F1000254F1000103D5BDE8890150
:10178000BDE80088BDE88901BDE80048B6195241AE
:1017900041EB0101A3F10103704780807F7E7D7CD6
:1017A0007B7A7978777676757473727171706F6EF3
:1017B0006E6D6C6C6B6A6A6968686766666564649E
:1017C000636362616160605F5F5E5E5D5D5C5C5B28
:1017D0005B5A5A5959585857575656555555545497
:1017E000535352525251515050504F4F4F4E4E4DF5
:1017F0004D4D4C4C4C4B4B4B4A4A4A494949484841
:101800004847474747464646454545444444444380
:1018100043434342424242414141002B9C4630D423
:1018200077002BD01CB54FEA370703B44FF01000F8
:101830004FF01001BAF1000F06D0BCF1000FDCBF71
:1018400040F0080040F008014FF000000FBCBDE878
:1018500010400BF1010BBBF1010F08BF5FEA170746
:1018600022BF12F1010211F101014FF0004143F1D9
:10187000000300F0004043EA00007047F9D3570826
:10188000D0E746EA064613F1400F4FEA16461FDD41
:1018900013F1200FDFBF16430A46002120335B42BD
:1018A000BED0C3F1200746EA064602FA07F74FEA20
:1018B000164646EA0706C3F1200722FA03F201FAA8
:1018C00007F721FA03F14FF0000342EA0702A7E706
:1018D00046EA020646EA06464FEA164646EA010688
:1018E000BCBF46EA0646360C4FF000034FF000023C
:1018F0004FF0000194E72DE9804C9A46934670B46E
:1019000091E8380007C831EA400C48BF34EA430C7C
:1019100003D5FFF7E6FDFFF780FFF0BCBDE8008CC4
:101920002DE9804C9A46934670B491E8380007C878
:1019300010F0804F08BF13F0804F03D100F005F87E
:10194000FFF76BFFF0BCBDE8008C20F07F4780EA1A
:10195000030023F07F4C07EB0C03A3F57C5300F04E
:101960000040A3F1FE0392F0000F00F0B38095F069
:10197000000F00F077802DE901494FEA11404FEA4E
:10198000144621EA004800FB06FC24EA064708FB4F
:1019900006F607FB08F800FB07F718EB06484CEBC8
:1019A000164C4FEA124B18EB07484FEA15464CEB22
:1019B000174022EA0B4E0BFB06FC25EA06470EFBFE
:1019C00006F607FB0EFE0BFB07F71EEB064E4CEB75
:1019D000164C4FF000061EEB074E4CEB174B18EB66
:1019E0000B0840F1000018EB0E0B58EB000840F11B
:1019F00000008F1A4FF000013CBFC943661B14BFA3
:101A0000B5EB040C00213CBFC943F61B4FEA174459
:101A10004EEA8E0E27EA04454FEA1C4704FB076294
:101A20002CEA074C05FB07F70CFB05F604FB0CFC46
:101A300016EB074642EB174216EB0C4642EB1C42F4
:101A40001BEB060658EB0202414146EA9E0601D511
:101A5000BDE80189B619524141EB0101A3F101032F
:101A6000BDE801894FEA14454FEA114724EA0546CB
:101A700021EA074C05FB07F406FB07F70CFB06F110
:101A800005FB0CFC11EB074144EB17444FEA1247EE
:101A900011EB0C4144EB1C4422EA074C05FB07F216
:101AA00006FB07F70CFB06F605FB0CFC16EB0746DE
:101AB00042EB174216EB0C4642EB1C456A1854F1F8
:101AC000000148BF7047B619524141EB0101A3F133
:101AD0000103704795F0000F37D04FEA11424FEAEB
:101AE000144721EA024624EA074C02FB07F106FBF1
:101AF00007F70CFB06F402FB0CFC14EB074441EB6C
:101B000017414FEA154714EB0C4441EB1C4125EA01
:101B1000074C02FB07F506FB07F70CFB06F602FB7A
:101B20000CFC16EB074645EB174516EB0C4645EB50
:101B30001C42121951F1000148BF7047B6195241B9
:101B400041EB0101A3F1010370474FEA14454FEA4D
:101B5000114724EA054621EA074C05FB07F106FB7D
:101B600007F70CFB06F24FF0000605FB0CFC12EB2E
:101B7000074241EB174112EB0C4251EB1C4148BFAD
:101B80007047921841EB0101A3F10103704700F087
:101B90000F01000900EB800001EB4000C0B270476C
:101BA000FEE770470A21B0FBF1F201FB1202B0FB25
:101BB000F1F042EA0010C0B27047000070B5044670
:101BC00000F004F90546601C02D004480078044483
:101BD00000F0FCF8401BA042FAD370BD2C0000209E
:101BE0002DE9F84FDFF8B8910024A9F1040B234642
:101BF0000F2709F1040AABF1040EC9E00125A54045
:101C00002A40AA427DD1674ED1F804C0ACEB060849
:101C1000B44532D014DCBCF1030F3AD009DCBCF17E
:101C2000000F2AD0BCF1010F1CD0BCF1020F31D142
:101C30001DE0BCF1110F17D0BCF1120F2AD119E031
:101C4000B8F5881F19D006DCB8F5803F15D0B8F577
:101C5000801F1FD111E0B8F5001F0ED0B8F5041F8A
:101C600018D10AE0CB6815E0CB681B1D12E0CB68E9
:101C700008330FE0CB680C330CE08B682BB1012BE1
:101C80004FF0080303D0456104E0042302E005613E
:101C900000E00023FF2A01D8064601E000F1040617
:101CA0004FEA840501D9A5F12005D6F8008007FA8E
:101CB00005FC28EA0C0803FA05F548EA0508C6F809
:101CC00000804D68ED0062D5374DAE6946F00106E3
:101CD000AE61AD6924F0030605F001050095334DB2
:101CE00006EB050CDCF80850A607360F07FA06F8D5
:101CF00025EA0805DFF8B880404503D14FF0000819
:101D000017E044E0DFF8AC80404502D14FF0010815
:101D10000FE0DFF8A480404502D14FF0020808E050
:101D2000DFF89880404502D14FF0030801E04FF002
:101D3000040808FA06F848EA0508CCF808804D6857
:101D4000D9F80060ED024D4601D5164300E09643F8
:101D50002E604D68DAF80060AD02554601D5164395
:101D600000E096432E604D68DBF80060AD035D46F1
:101D700001D5164300E096432E604D68DEF8006002
:101D8000ED03754601D5164300E096432E60641CB2
:101D90000D682A46E5407FF431AFBDE8F88F0000BA
:101DA0000804014000001110001002400000014032
:101DB00000080140000C01400010014000140140E7
:101DC0008068084000D0012070470000014880680A
:101DD000704700002C00002070B5040025D094F856
:101DE0003D00002520B984F83C50204600F076FAEA
:101DF000242084F83D002068016821F00101016081
:101E00002068016841F4004101602068016821F404
:101E10000041016000F0B0FB4D4A6168914201D879
:101E20004C4900E04C49884201D2012070BD4B4929
:101E30002368B0FBF1F15E6826F03F060E435E605A
:101E40006368934206D94FF4967359434FF47A73FB
:101E5000B1FBF3F12368491C1E6A26F03F063143AB
:101E600019626168914210D84900401EB0FBF1F23E
:101E7000521CC2F30B02042A01D2042022E0B0FB60
:101E8000F1F0401CC0F30B001CE0A268F2B301EBC0
:101E9000C10303EB0116431EB3FBF6F35B1C43F4D3
:101EA00080431B0549D092B301EBC10202EB011143
:101EB000401EB0FBF1F0401CC0F30B0040F480402A
:101EC00040F400402168CA694CF6FF739A431043FE
:101ED000C861D4E9071001432068026822F0C002FB
:101EE00011430160D4E9030101432068826848F28C
:101EF000FF339A4311438160D4E905010843216807
:101F0000CA6822F0FF021043C86001E00EE016E04C
:101F10002068016841F0010101602564202084F8F7
:101F20003D00256384F83E50002070BD01EB410662
:101F3000431EB3FBF6F35B1CB3E70120C2E701EBE2
:101F40004101401EB0FBF1F0401CC0F30B00B7E7AD
:101F5000A086010080841E0000093D0040420F0061
:101F60002DE9F84F0025DDF82890984617468A4657
:101F700004460095FFF72AFF064694F83D00202806
:101F80007AD11923012286492046009600F0D6FD19
:101F90000028F5D194F83C0001286DD0012084F888
:101FA0003C0020680168C90703D1016841F00101C4
:101FB00001602068016821F400610160222084F83A
:101FC0003D00102084F83E0025646762A4F82A8052
:101FD000608D20857348E06233464A46514620466C
:101FE00000F0BCFC00287CD1208DDFF8BC812027CC
:101FF00068B1012814D00228206801681ED041F47D
:10200000806101602068416980690090BBE02068C0
:10201000416981690091016841F400710160B2E099
:102020002068016821F48061016072B6206841690E
:1020300081690091016841F400710AE041F4006196
:10204000016072B62068416981690091016821F4DC
:102050008061016062B696E0032865D801280CD043
:1020600002284B464FF000024146204600960BD016
:1020700000F064FDA8BB0CE090E0324649462046E3
:1020800000F002FE68BB71E000F058FD48BB72B67C
:1020900033E02068016821F48061016072B6206835
:1020A0000069616A0870606A401C6062208D401E91
:1020B0002085608D401E60853C4846F2A81100686E
:1020C000B0FBF1F0C0EBC00000EB80000090401EC0
:1020D000009007D020684069C04340070DD50098A4
:1020E000F5E727E044F8305F6773A573206940F097
:1020F0002000206162B625731CE02068016841F46D
:102100000071016020680069616A0870606A401CA3
:102110006062218D491E2185618D491E618562B6EF
:1021200021680969017025E032464946204600F0E1
:10213000ABFD10B10120BDE8F88F20680069616A2D
:102140000870606A401C6062208D401E81B221854B
:10215000608D401E608520684269D243520712D4C8
:10216000032903D1016821F48061016020680069BE
:10217000616A0870606A401C6062208D401E208584
:10218000608D401E6085208D00287FF465AF84F847
:102190003D7084F83E5084F83C50CCE70220CAE7FA
:1021A000020010000000FFFF0400010038000020C2
:1021B0002DE9F84F1F4690468A460446DDF82890E0
:1021C000FFF704FE054694F83D0020287FD119232F
:1021D000012240492046009500F0B0FC002876D14D
:1021E00094F83C00012872D0012084F83C0020685B
:1021F0000168C90703D1016841F00101016020684D
:10220000016821F400610160212084F83D00102064
:1022100084F83E0000262664C4F824806785608D1B
:1022200020852D48E0622B464A465146204600F064
:102230000BFC90B9206841698069009036E02A461D
:102240004946204600F058FD50B1206C042804D1C6
:102250002068016841F4007101600120BDE8F88F39
:10226000606A216800780861606A401C6062618D64
:10227000491E6185218D491E89B2218522685369D5
:10228000DB435B070BD451B100781061606A401CDE
:102290006062608D401E6085208D401E20852A462C
:1022A0004946204600F01EFC0028CED1208D002893
:1022B000C5D154F83D0B016841F400710160202044
:1022C00004F81E09E67766770020C7E7FFE70220DB
:1022D000C4E70000020010000000FFFF10B586B048
:1022E0000021009101910291039100680F498842F9
:1022F0001AD10F4CA06940F00800A061A06969469E
:1023000000F008000490C0200090122001900320EB
:1023100003900848FFF764FCE06940F40010E061B6
:10232000E06900F40010049006B010BD00540040B5
:1023300000100240000C01400248816802781144FC
:10234000816070472C000020074810B5016841F0FB
:1023500010010160032000F067F80F2000F006F87C
:1023600000F024F8002010BD0020024070B50D4D93
:1023700004464FF47A712878B1FBF0F00A490968F5
:10238000B1FBF0F000F0BEFA48B9102C07D20022E1
:102390002146501E00F028F800206C6070BD01201E
:1023A00070BD00002C000020380000200C4808B54B
:1023B000816941F001018161816901F001010091B0
:1023C000C16941F08051C161C06900F08050009046
:1023D0000448416821F0E06141F00071416008BDAE
:1023E0000010024000000140F0B40E4B1B680C4688
:1023F000C3F30223C3F10705042D00D90425191DD9
:10240000072901D2002300E0DB1E012606FA05F1B0
:10241000491E214099409E40761E16403143F0BC33
:1024200000F00DBD0CED00E0064900F00702086861
:102430004FF6FF03184040EA0220034A10430860A9
:10244000704700000CED00E00000FA052DE9F047B0
:102450000F46050061D0434E306800F00700B842D7
:1024600009D2306820F0070038433060306800F04F
:102470000700B84251D128683B4C810712D540076C
:1024800003D5606840F4E06060602878000703D5F9
:10249000606840F4605060606068A96820F0F000F7
:1024A000084360602878C00728D06868012810D0E9
:1024B0002168022810D0890700292EDA616821F0EE
:1024C000030101436160FFF781FC804641F28839D6
:1024D0000DE021688903EFE78901EDE7FFF776FC5E
:1024E000A0EB0801494502D90320BDE8F0876068E8
:1024F000696800F00C00B0EB810FEFD1306800F09C
:102500000700B8420BD9306820F00700384330602C
:10251000306800F00700B84201D00120E5E72878D4
:10252000400705D56068E96820F4E0600843606012
:102530002878000706D56068296920F4605040EAD1
:10254000C100606000F028F86168084AC1F3031117
:10255000515CC8400649086006480068FFF706FF5E
:102560000020C2E70020024000100240F2380008BC
:102570003800002030000020044805490068496800
:10258000044AC1F30221515CC84070473800002062
:1025900000100240023900080E4A51680E4801F04E
:1025A0000C03042B11D0082B0FD10C48C1F383432B
:1025B000C903C05C0AD55168084AC1F34041921E64
:1025C000515C054A5043B0FBF1F070470449484361
:1025D000704700000010024000127A00E238000844
:1025E00000093D002DE9F84F040070D02078C04D5F
:1025F000C00749D06868C0F38100012807D0686827
:10260000C0F38100022809D16868C00306D5286894
:10261000800339D560680028E7D035E06068B0F500
:10262000803F0BD010B1B0F5A02F11D0286820F456
:1026300080302860286820F4802002E0286840F478
:1026400080302860606890B1FFF7C0FB06460AE062
:10265000286840F480202860F0E700BFFFF7B6FB51
:10266000801B642873D828688003F7D50CE0FFF737
:10267000ADFB064605E000BFFFF7A8FB801B642802
:10268000F0D828688003F7D420789A4E80074FF05E
:1026900001094FF0000839D5686810F00C0F07D019
:1026A0006868C0F38100022809D16868C00306D4B5
:1026B0002868800714D52069012808D110E0206916
:1026C000B0B1C6F80090FFF781FB074605E00AE1CC
:1026D000FFF77CFBC01B0228C4D828688007F7D509
:1026E0002868616920F0F80040EAC10028600DE028
:1026F000C6F80080FFF76AFB074604E0FFF766FBB9
:10270000C01B022823D828688007F7D42078000748
:102710002CD57948A169D9B1C0F80090FFF756FBD4
:10272000074604E0FFF752FBC01B02280FD8686A77
:102730008007F7D571484FF4FA510068B0FBF1F00B
:10274000009000BF0098411E0091FAD20EE080E098
:10275000C0F80080FFF73AFB074604E0FFF736FBBE
:10276000C01B022875D8686A8007F7D42078400714
:1027700060D5E8690027C00008D4E86940F08050BF
:10278000E861E869012700F0805000905C4801682A
:10279000C90513D40168834641F480710160FFF7D5
:1027A00015FB824606E000BFFFF710FBA0EB0A0016
:1027B00064284ED8DBF80000C005F5D5E068012894
:1027C0000AD008B1052813D0286A20F00100286239
:1027D000286A20F0040002E0286A40F00100286224
:1027E000E06841F2883B98B1FFF7F0FA82460BE0CF
:1027F000286A40F004002862EEE700BFFFF7E6FA1F
:10280000A0EB0A0159455AD8286A8007F6D50CE092
:10281000FFF7DCFA824605E0FFF7D8FAA0EB0A01E1
:1028200059454CD8286A8007F6D41FB1E86920F0D2
:102830008050E861E06988B36968C1F381010229C9
:1028400044D00228C6F8608004D0FFF7BFFA0446DF
:1028500038E034E0FFF7BAFA074604E0FFF7B6FACB
:10286000C01B02282BD828688001F7D4206AB0F555
:10287000803F05D16868A16820F400300843686093
:10288000D4E908010843696821F4741108436860B9
:10289000C6F86090FFF79AFA044606E025E000BF0C
:1028A000FFF794FA001B022809D828688001F7D5A1
:1028B0001BE000BFFFF78AFA001B022802D90320A1
:1028C000BDE8F88F28688001F4D40EE00128F7D025
:1028D0006868226A00F48031914204D1616A00F490
:1028E0007010884201D00120EAE70020E8E70000EC
:1028F00000100240000042428004424238000020A2
:102900000070004010B5401EB0F1807F01D301205F
:1029100010BD4FF0E02460610F21601700F08FFAC6
:102920000020A06107202061002010BDFEE70168A3
:102930004A69D24352050FD46FF480624A61002184
:1029400040F8301F202242738173026942F0040272
:102950000261017301207047002070472DE9F84F94
:102960000446C06A1E4693460D4621680A6842F432
:1029700080620A60082807D0012805D010F5803F42
:1029800002D0206B112804D12068016841F48071C5
:1029900001604FF001195B4600224946204600962F
:1029A00000F0CCF84FF4007840B120680068C00512
:1029B00001D5C4F840800320BDE8F88F2069DFF816
:1029C00084A0B0F5804F0FD00620216800EAD5170B
:1029D00047F0F000086133465A460AF106012046E6
:1029E00000F0F4F858BB03E0E8B240F001001CE04E
:1029F0002168E8B2086133465A465146204600F045
:102A0000E5F8E0B92068416981690091016841F405
:102A1000807101605B46002249462046009600F026
:102A20008DF80028C1D147F0F100216808613346D4
:102A30005A465146204600F0C9F80028BCD0012073
:102A4000BAE7000002000100F8B50446C06A1E465D
:102A50000D461746082807D0012805D010F5803FFD
:102A600002D0206B122804D12068016841F48071E3
:102A70000160134600224FF001112046009600F03D
:102A80005DF840B120680068C00502D54FF40070C1
:102A900020640320F8BD2069B0F5804F0ED00620D9
:102AA000216800EAD51040F0F000086133463A464C
:102AB0000B49204600F08AF878B902E005F0FE00E4
:102AC00000E0E8B221680861054933463A46891FAB
:102AD000204600F07BF80028DCD00120F8BD000083
:102AE0000800010070B516460D4604461EE020465B
:102AF000FFF71DFF08B1012070BD681C16D0FFF75D
:102B000065F9801BA84200D885B920684069C04398
:102B100040070BD5002044F8300F20216173A073CB
:102B2000216941F0200121612073E4E720684069B8
:102B3000C0434007DBD4002070BD00002DE9F04702
:102B4000984617460D460446C1F30746DDF8209027
:102B50002AE000BFB8F1FF3F26D0FFF737F9A0EB1E
:102B60000901414502D8B8F1000F1DD12068012E9E
:102B700016D0806925EA00000004000C12D0002065
:102B8000B84211D1002044F8300F20216173A073A6
:102B9000216941F02001216120730120BDE8F08707
:102BA0004069E7E70120EBE72068012E0AD0806941
:102BB00025EA00000004000C06D00020B842C9D06D
:102BC0000020EBE74069F3E70120F7E72DE9F04744
:102BD000984616460D4604464FF000094FF0200A6D
:102BE000C1F3074723E020684069C043400515D47E
:102BF0002068016841F40071016021686FF4806011
:102C00004861C4F8309084F83DA084F83E90216C6F
:102C100041F00401216484F83C9021E0701C06D04E
:102C2000FFF7D4F8A0EB0800B04203D816B1012F8B
:102C30001FD021E02068012F15D0806925EA00000F
:102C40000004000C18D000BF44F8309F84F80DA099
:102C500084F80E90216941F02001216184F80C90E4
:102C60000120BDE8F087406925EA00000004000C5F
:102C7000EAD12068406901E02068806925EA000007
:102C80000004000CAFD1ECE72DE9F041002590469F
:102C90000E460446202728E04069C043C0060CD4F5
:102CA00054F8301B6FF01000486144F810596777F2
:102CB000A577206A2062257714E0FFF787F8A0EB5C
:102CC0000800B04200D886B920684069C043400679
:102CD0000BD544F8305F6773A573206940F020007E
:102CE000206125730120BDE8F08120684169C94356
:102CF0004906D1D40020F6E770B516460D460446C5
:102D00001EE02046FFF713FE08B1012070BD681CCD
:102D100016D0FFF75BF8801BA84200D885B9206861
:102D20004069C04300060BD5002044F8300F202135
:102D30006173A073216941F0200121612073E4E7F0
:102D400020684069C0430006DBD4002070BD00004D
:102D500000B585B00020019003901148816941F0D1
:102D600020018161816901F020010491816941F0B4
:102D700004018161816901F004010491816941F0DC
:102D8000080181618069694600F00800049007200D
:102D90000090012002900348FEF722FF05B000BD1D
:102DA0000010024000080140FEE7FEE77047704750
:102DB000FFF7C2BA30B58FB028216846FDF7DAFBBD
:102DC00014210AA8FDF7D6FB01210804CDE9001063
:102DD0000024029402250491CDE907504FF4E0103D
:102DE00009906846FFF7FEFB08B172B6FEE70F20B8
:102DF000CDE90A054FF48060CDE90C4002210AA814
:102E00000E94FFF723FB002801D072B6FEE70FB047
:102E100030BD7047FEE7490050EAC12018BF0420CA
:102E20004A0D18BF40F0010040F2FF72B2EB515F53
:102E300008BF40F00200012808BF052070470907BD
:102E4000090E002804DB00F1E02080F80014704730
:102E500000F00F0000F1E02080F8141D70473038BA
:102E60000A2801D2012070470020704703462A48F3
:102E700010B50178294809294DD2DFE801F04C0549
:102E8000090F1323393D410000221721234802E096
:102E900000223B21401C00F0D3FC24E000223B2117
:102EA000801CF8E7044690F9060081B2607900F0D2
:102EB000DBF941B20122201D00F0C2FC174800F0EE
:102EC000F5FB10E0044601220C21401D00F0B8FC87
:102ED00094F9060081B2607900F0C6F994F9041003
:102EE000814200DD2071BDE810400C4800F0DEBBDF
:102EF00000226321801DCEE700221721C01D03E0C0
:102F0000064800223B21083000F09AFCBDE8104042
:102F1000024800F0AFBB10BD00000020940000206C
:102F20001FB5FEF753FF234C216A401AB0F5967F78
:102F300020D3214800F034FBA078E0B10020A0703D
:102F40001D481EA190F9083090F907206846FDF74A
:102F5000ABF9A07888B1174805220121243000F090
:102F60003EFA14486A4618A1243000F07EFAFEF7B3
:102F70002DFF20621FBD0120E1E7217820200729D5
:102F800002D0082909D104E08DF801008DF8000075
:102F900003E08DF804008DF80300064805220021A7
:102FA000243000F01CFA034808A1243000F05DFA38
:102FB000D1E700000000002094000020253032649A
:102FC0003A2530326400000025730000414C415224
:102FD0004D00000010B50446018AC068FEF7F0FEFF
:102FE000A178814205D0A0700120E070FEF7EEFECE
:102FF0006060FEF7EBFE6168401A0F2805D3E078A9
:1030000018B1A07820700020E070207861788842A4
:103010001AD0D0B1FEF7DAFEA168401AB0F57A7F77
:1030200002D8204600F058F8204600F03BF8FEF7A2
:10303000CDFEA168401A40F6B831884202D320463E
:1030400000F06CF82078607010BDFEF7BFFEA06045
:10305000204600F009F8F5E7012303708370437000
:10306000C16002827047000010B50C490C4C8842C8
:1030700006D10120FFF7FAFEFEF7A8FE606009E026
:1030800006491431884208D10020FFF7EFFEFEF711
:103090009DFEA060FEF79AFEE06010BDB400002027
:1030A0000000002010B50A4A00210A4C904201D1CC
:1030B000616004E0064A1432904204D1A160FEF738
:1030C00085FEE06010BD024914398842F7D010BD7A
:1030D000B4000020000000200E4988420FD10E48A5
:1030E00000210278092A0AD2DFE802F005070A0C5B
:1030F0000E1008120800012100E002210170704743
:103100000321FBE70421F9E70521F7E70621F5E7AD
:103110000821F3E7A0000020000000200C4910B5B2
:10312000884213D10B490720087001F1240000F0F8
:1031300000F9084805220021243000F050F9054824
:10314000BDE8104004A1243000F08FB910BD00008C
:10315000A000002000000020414C41524D00000022
:10316000810705D16421B0FBF1F201FB120141B9E5
:103170004FF4C871B0FBF1F201FB120008B100205E
:1031800070470120704700000C4810B500780928EE
:1031900013D2DFE800F0050909090909090C0C0040
:1031A000BDE8104000F00CB800F0B4FA01E0FFF701
:1031B000B7FEBDE8104000F06FB810BD0000002061
:1031C0007CB5FEF703FE1C4D2969401AB0F57A7FE5
:1031D00031D31A4800F0E4F90422002105F124005B
:1031E00000F0FDF8154C16A194F90200009094F936
:1031F000013094F9002005F1240000F036F9012295
:10320000114605F1240000F0EAF8204600F004FA27
:103210000F4901EB800294F9061094F90500CDE9FD
:10322000000194F904300BA105F1240000F01DF910
:10323000FEF7CCFD28617CBD00000020940000203A
:10324000253032643A253032643A25303264000049
:10325000C4380008257320253032642F25303264AD
:103260002F3230253032640000B50D2812D2DFE84D
:1032700000F011070B0709070907070907090700ED
:103280001F2000BD1E2000BD0846FFF769FF08B1E2
:103290001D2000BD1C2000BD70B51E4C4FF47A757A
:1032A0004FF49676606888B1FEF790FD6168401A29
:1032B000A8420BD9FEF78AFDA169401AB04205D990
:1032C0000120FFF7D3FDFEF781FDA061A06888B162
:1032D000FEF77CFDA168401AA8420BD9FEF776FDE7
:1032E000E169401AB04205D90020FFF7BFFDFEF7A3
:1032F0006DFDE061E06800280AD0FEF767FDE16837
:10330000401A42F21071884202D90020E060207019
:1033100070BD0000000000201CB500218DF80410D5
:103320000A21009101784068012301AAFEF740FFBD
:103330001CBD70B50546802100F05DF800242021F9
:10334000284600F075F8641C462CF8DB70BD10B5FB
:103350004160044602703220FEF730FC30212046E6
:1033600000F049F80520FEF729FC3021204600F046
:1033700042F80120FEF722FC3021204600F03BF805
:103380000A20FEF71BFC2021204600F034F80A201A
:10339000FEF714FC2821204600F02DF80120FEF74E
:1033A0000DFC0821204600F026F80120FEF706FC5F
:1033B0000121204600F01FF80120FEF7FFFB01204D
:1033C000FEF7FCFB0621204600F015F80120FEF771
:1033D000F5FB2046BDE810400C2100F00CB811B1FF
:1033E000012905D102E042F0800201E042F0C00272
:1033F000D1B2AFF300801CB501F0F00242F00C0333
:103400008DF8043042F0080209018DF8052041F0E2
:103410000C028DF8062041F008018DF80710642198
:10342000009101784068042301AAFEF7C1FE1CBD8B
:103430001CB501F0F00242F00D038DF8043042F0AB
:10344000090209018DF8052041F00D028DF80620D2
:1034500041F009018DF8071064210091017840685E
:10346000042301AAFEF7A4FE1CBD0FB4112170B500
:1034700086B006460CAB68460B9AFCF7FBFE0024B0
:103480006D4604E03046FFF7D3FF641CE4B2295DCB
:103490000029F7D106B070BC5DF814FBFEF754FFAD
:1034A000FFF788FCFFF754FC254824494FF480427D
:1034B00001602449416000218160C0E9031241613B
:1034C0008161C1610162FEF787FC08B172B6FEE757
:1034D0004E221B491C48FFF73AFF194800F038F804
:1034E0001948FFF726FF194C15480122214688305C
:1034F000FFF7B2FD1248022221466030FFF7ACFD13
:103500000F48042221467430FFF7A6FD0C485430C2
:1035100000F024F80C48FFF7FFFE00BFFFF734FE71
:1035200007488830FFF756FD05486030FFF752FD29
:1035300003487430FFF74EFDF0E7000000540040F0
:1035400040000020A0860100240000200008014067
:1035500001490860704700003C000020FEB50446A9
:103560000E4E082064258DF808000095012302AA5C
:10357000D0213068FEF71CFE0095022301AAD0215D
:103580003068FEF7EDFC9DF80400FEF700FB2072AA
:103590009DF80500FEF7FBFAE071FEBD3C0000203F
:1035A0007FB504461B4E002064258DF80C00009565
:1035B000012303AAD0213068FEF7FAFD0095072306
:1035C00001AAD0213068FEF7CBFC9DF80400FEF77D
:1035D000DEFAA0709DF80500FEF7D9FA60709DF83C
:1035E0000600FEF7D4FA20709DF80700FEF7CFFA28
:1035F000E0709DF80800FEF7CAFA20719DF80900F6
:10360000FEF7C5FA60719DF80A00FEF7C0FAA071D6
:103610007FBD00003C00002090F9043090F90520A7
:1036200090F90600032A00F5FA6002DA0146401E0E
:1036300000E0811E1944C2EBC20303EB021209230E
:1036400092FBF3F21144C21700EB927201EBA2015C
:10365000642290FBF2F2891A4FF4C87290FBF2F0E8
:1036600008440721001D90FBF1F201FB1200C0B2DB
:10367000704700001CB5034608208DF80400187A36
:10368000FEF790FA8DF80500D879FEF78BFA8DF8E1
:103690000600642000900448032301AAD02100689A
:1036A000FEF786FD1CBD00003C0000200EB5034661
:1036B00000208DF804009878FEF774FA8DF8050064
:1036C0005878FEF76FFA8DF806001878FEF76AFA58
:1036D0008DF80700D878FEF765FA8DF8080018799C
:1036E000FEF760FA8DF809005879FEF75BFA8DF85D
:1036F0000A009879FEF756FA8DF80B0064200090C6
:103700000348082301AAD0210068FEF751FD0EBD31
:103710003C00002030B58BB0FEF758FB3B4C616994
:10372000401AB0F5967F6FD33948FFF739FF6078BC
:1037300010B30020364D607036A195F9020000905C
:1037400095F9013095F9002006A8FCF7ADFD284653
:10375000FFF762FF334901EB800295F9061095F9F6
:103760000500CDE9000195F904302FA102A8FCF76E
:103770009BFD6078F8B901E00120DBE7217820208B
:10378000072926D2DFE801F02504090E13181D00D1
:103790008DF819008DF818001BE08DF81C008DF8CD
:1037A0001B0016E08DF81F008DF81E0011E08DF84B
:1037B0000D008DF80C000CE08DF810008DF80F0056
:1037C00007E08DF815008DF813008DF814008DF8C2
:1037D00012000E48042200212430FFF700FE0B489F
:1037E00006AA16A12430FFF740FE08480122114620
:1037F0002430FFF7F4FD054802AA10A12430FFF79A
:1038000034FEFEF7E3FA60610BB030BD000000202B
:1038100094000020253032643A253032643A253055
:1038200032640000C4380008257320253032642F2C
:10383000253032642F323025303264002573000089
:1038400010B590F9004033B1641C63B203708B4231
:1038500000DD027010BD641E63B203709342F9DA9A
:10386000017010BD10B500290AD00878002807D0D3
:1038700005487844FDF77CFD002801D0002010BDEC
:103880000248784410BD0000B6010000AE010000FF
:1038900010B500290AD00878002807D005487844D8
:1038A000FDF766FD002801D0002010BD02487844D5
:1038B00010BD0000A60100009E010000FDF77CB9CC
:1038C000FDF7B0BA53554E004D4F4E0054554500CC
:1038D000574544005448550046524900534154004E
:1038E000010202030405060708090A0B0C0D0E0F5E
:1038F0001010000000000000000001020304060791
:103900000809000000000102030404000008000090
:103910000000000000020001000010000000000094
:103920000000000030313233343536373839414207
:103930004344454640305800303132333435363711
:103940003839616263646566403078003031323303
:1039500034353637383961626364656678700030B3
:10396000313233343536373839414243444546588D
:103970005000000002400000000000A00000000015
:1039800005400000000000C8000000000C400000DE
:103990000000409C00000000194000000020BCBE58
:1039A0000000000034400000BFC91B8E000000046E
:1039B000B5400000504BCFD06607E2CF01000000B9
:1039C0006C4100003E8251AADFEEA73401000000E6
:1039D000D9420000DCB5A0E23A301F97FFFFFFFF9D
:1039E000B4450000FD25A0C8E9A3C14FFFFFFFFFBC
:1039F000FF3F00000000008000000000FF3F0000CB
:103A00000000008000000000543B0008000000207F
:103A10004000000028010008943B000840000020FE
:103A200000070000440100081C00000043000000E3
:103A3000F8FFFFFF0C0000000E0000000F00000068
:103A40002E0000001001000043000000F8FFFFFFFF
:103A500000404040404040404040414141414140A1
:103A60004040404040404040404040404040404056
:103A700040050202020202020202020202020202E5
:103A800002202020202020202020200202020202EA
:103A90000202909090909090101010101010101042
:103AA000101010101010101010101010020202024E
:103AB0000202888888888888080808080808080892
:103AC000080808080808080808080808020202028E
:103AD00040000000000000000000000000000000A6
:103AE00000000000000000000000000000000000D6
:103AF00000000000000000000000000000000000C6
:103B000000000000000000000000000000000000B5
:103B100000000000000000000000000000000000A5
:103B20000000000000000000000000000000000095
:103B30000000000000000000000000000000000085
:103B40000000000000000000000000000000000075
:103B50000000000000010100000000000000000063
:103B60000000000000000000000000000000000055
:103B70000000000000000000000000000000000045
:103B80000100000010000000000000000024F4000C
:043B90000000000031
:04000005080000ED02
:00000001FF
