:020000040800F2
:1000000050070020350200081D280008D5220008EE
:10001000192800081D140008152900080000000018
:100020000000000000000000000000007D28000823
:1000300021140008000000004D280008B128000825
:100040004F0200084F0200084F0200084F0200084C
:100050004F0200084F0200084F0200084F0200083C
:100060004F0200084F0200084F0200084F0200082C
:100070004F0200084F0200084F0200084F0200081C
:100080004F0200084F0200084F0200084F0200080C
:100090004F0200084F0200084F0200084F020008FC
:1000A0004F0200084F0200084F0200084F020008EC
:1000B0004F0200084F0200084F0200084F020008DC
:1000C0004F0200084F0200084F0200084F020008CC
:1000D0004F0200084F0200084F0200084F020008BC
:1000E0004F0200084F0200084F02000800F002F81B
:1000F00000F090F80AA090E8000C82448344AAF132
:100100000107DA4501D100F085F8AFF2090EBAE82F
:100110000F0013F0010F18BFFB1A43F0010318473B
:100120007C3E00009C3E0000103A24BF78C878C195
:10013000FAD8520724BF30C830C144BF04680C60ED
:10014000704700000023002400250026103A28BF35
:1001500078C1FBD8520728BF30C148BF0B60704739
:100160006E2900F09C82702900F0FD83662903F05F
:100170006186652903F05E86672903F05B86612945
:1001800003F05A8603681B0A28BF41F080016929E1
:1001900000F0F080642900F0ED80752900F0EA801D
:1001A0006F2900F08B83782900F0C983E92900F0DA
:1001B0002583E42900F02283F52900F01F83EF292D
:1001C00000F08883F82900F0C8830368DB0928BFA2
:1001D00041F08001632900F0A682732900F0AB8210
:1001E000E32900F0A787F32900F0AC8700207047CF
:1001F0001FB500F0FDFF04000020002103F004FE05
:10020000401C60600020002103F0E8FDE0601FBD9D
:1002100010B510BD00F0BEFF1146FFF7E9FF02F078
:10022000E5FF01F09BF803B4FFF7F2FF03BC01F018
:10023000E3F800000948804709480047FEE7FEE769
:10024000FEE7FEE7FEE7FEE7FEE7FEE7FEE7FEE786
:1002500004480549054A064B70470000112900086B
:10026000ED0000085001002050070020500300203E
:10027000500300207CB51D4616460C00009001D0AE
:100280002044401E074B7B442A4669460190304675
:1002900000F01FFA05461CB10020694600F02CFA58
:1002A00028467CBD790400000FB41CB5084B06AA93
:1002B0007B4469460090059800F00BFA0446002044
:1002C000694600F019FA20461CBC5DF814FB0000DA
:1002D0004504000070B5044685690068C10601D573
:1002E000302600E02026C00707D070BDD4E90121E8
:1002F00030469047206A401C20626D1EF6D570BDC6
:1003000070B5044685690078C00707D170BDD4E98F
:10031000012120209047206A401C20626D1EF6D5E6
:1003200070BD70B50C460546012A05D028788006B8
:1003300000D5EA69002302E0012305E05B1C93423B
:1003400002D2E05C0028F9D1A869E618C01AA861B9
:10035000286A184428622846FFF7BCFF04E0D5E964
:10036000012114F8010B9047B442F8D32846FFF757
:10037000C7FF70BD2DE9F0410646002410687529BD
:10038000314616A510D000F01FF9002802DA4042CD
:1003900013A507E031688A0701D512A502E04907D5
:1003A00004D511A5012401E000F017F900210A226B
:1003B00006F1240709E0B0FBF2FCB0FBF2F302FB0C
:1003C0001C00303078541846491C0028F3D12346CD
:1003D0002A463046BDE8F04100F008B900000000B0
:1003E0002D0000002B000000200000002DE9F05F30
:1003F000894604464FF0000ADFF874B1FB44C0F8A8
:1004000020A02046E1688847002874D0252806D01F
:10041000D4E901219047206A401C2062F1E70026C0
:100420005F462046E16888472028054607DB312DD6
:1004300005D2781910F8200C08B10643F1E7B0078F
:1004400001D526F00406C4F81CA00027C4F818A0A3
:100450002A2D09D0284603F0BAFC38B304EB8708EC
:10046000303DC8F8185019E059F8041B204604EB39
:1004700087029161E1688847012F054618D1E0693C
:10048000002820DA26F020061DE0D8F8180000EB3E
:10049000800005EB40003038C8F818002046E168BD
:1004A0008847054603F093FC0028EED1012F0AD0BF
:1004B0002E2D08D12046E16888477F1C0546022F73
:1004C00046F02006C4DBA069002803DA404246F06B
:1004D0000106A061F00701D026F010066C2D0BD0AC
:1004E000682D09D04C2D39D06A2D35D0742D35D0DA
:1004F0007A2D33D016E038E0E1682F462046884751
:10050000B842054609D16C2F26D04FF48060E168CF
:10051000064320468847054604E06C2F1AD04FF466
:10052000807006430DB3A5F14100192802D820358B
:1005300046F400664A462946204626604E46FFF7A6
:100540000FFE80B101280BD0F61D26F0070000F148
:10055000080956E74020E4E78020D8E70020D6E7E6
:1005600006F104094DE7284652E7206ABDE8F09FEE
:100570003C3A00004FF0000200B513469446964600
:10058000203922BFA0E80C50A0E80C50B1F12001A6
:10059000BFF4F7AF090728BFA0E80C5048BF0CC054
:1005A0005DF804EB890028BF40F8042B08BF7047B2
:1005B00048BF20F8022B11F0804F18BF00F8012B24
:1005C000704770477047704709684A0501D540B2C7
:1005D0007047C905FCD500B2704709684A0501D5C6
:1005E000C0B27047C905FCD580B270472DE9F0470D
:1005F0000D4699469246044600F124080168880693
:1006000004D5E06921F01001216000E00120A8423A
:1006100001DD471B00E00027A1697A1902EB090000
:10062000081AA0612078C00602D42046FFF752FEC7
:10063000002608E0D4E901211AF806009047206A54
:10064000401C761C20624E45F4DB2078C0060AD59B
:100650002046FFF73FFE06E0D4E901213020904715
:10066000206A401C2062381EA7F10107F4DC07E075
:10067000D4E9012118F805009047206A401C206247
:10068000281EA5F10105F3DC2046FFF739FE20788E
:10069000000602D50220BDE8F0870120FBE71168C3
:1006A0000268006A530501D508700AE0D30501D538
:1006B000088006E0130603D5C217C1E9000200E076
:1006C000086001207047000001694A1C0261087837
:1006D000704700B58FB0CDE9013100210591054982
:1006E0007944CDE9031011466846FFF77FFE0FB04D
:1006F00000BD0000E5FFFFFF0A6802F8010B0A6079
:100700007047D1E900239A4202D2531C0B6010704B
:10071000704710B5436913B1AFF3008001E0FFF7F4
:1007200000FE012010BD127800F124010A700022A1
:100730004A700122EDE711684FF0FF32E9E700004F
:100740002DE9FF5F15468A460446DFF8AC80F84481
:100750000027D8E900103E46CDE9001010E03AF835
:1007600016106A4602A800F0F1FC411C07D021785F
:10077000890603D5E269391891420DD80744761CE1
:100780002078800602D5E069B84205DDAE42E6DB9E
:100790003AF816000028E2D1A069C01BA0612046EB
:1007A000FFF798FDD8E90010CDE90010002017E010
:1007B0003AF818106A4602A800F0C8FCB0F1FF3FF2
:1007C00081460BD000250DF1080B05E0D4E901218D
:1007D0001BF8050090476D1C4D45F7D308F101004B
:1007E000B0428046E4DB206A384420622046FFF7AE
:1007F00087FDBDE8FF9F0000FE3600002DE9F041B7
:100800008046D21D22F007020025D2E90002F52918
:1008100015A614D0011E72F1000106DA0023D0EBF8
:10082000030063EB020211A608E0D8F800108B0762
:1008300001D50FA602E0490701D50EA601251146F4
:10084000002408F1240704E000F098F830323A550B
:10085000641C50EA0102F7D12B463246214640463D
:10086000BDE8F041FFF7C2BE000000002D0000000F
:100870002B0000002000000030B4002100F124040F
:1008800008E002F00705D208303542EA4372DB087F
:100890006554491C52EA0305F3D10468002310A2F1
:1008A000250708D504F020040C4304D0C4690123B3
:1008B0000CA2641EC46130BCFFF798BE10B504469C
:1008C00021461068FFF789FE02462046BDE8104029
:1008D0000023D1E7D21D22F00701D1E90023CBE7A5
:1008E0000000000030000000F0B40D46018809054A
:1008F00002D5214C7C4402E01F4C7C440E34002184
:1009000000F1240608E002F00F071209E75D42EA51
:1009100003721B097754491C52EA0307F3D102788A
:100920000023120704D5702D06D009B1022311341B
:100930002246F0BCFFF75ABE01231034F8E770B529
:1009400004460D4621461068FFF747FE0246294639
:100950002046BDE870400023C6E7D21D22F0070301
:10096000D3E90023C0E70368126843F02003036063
:100970000823C3610023B7E76035000030B5B0F14C
:100980000A0271F100034FEA900E4EEA817EB0EB4D
:100990000E0061EB91014FEA101E4EEA017E10EB52
:1009A0000E0041EB11114FEA102E4EEA016E10EBD2
:1009B0000E0041EB11214FEA104E4EEA014E10EBB2
:1009C0000E0041EB1141401841F100014FEAD00007
:1009D00040EA41704FEAD1014FEA810444EA907441
:1009E00010EB800544EB01046D1944EB0404521B29
:1009F000A3414FF0000348BF0A3200D530BD401C70
:100A000041F1000130BD2DE9FF4F0C461E464FF06D
:100A1000FF378BB0D2E90001DDF860800A908A468A
:100A2000C1F30A5505B93D46002108464FF00000C4
:100A3000BAF1000F00F4400005DA00EB80004FF43B
:100A4000400101EA50004FEA9059B9F1010F00DD71
:100A5000B9460A9850EA4A000ED044F61050A5F262
:100A6000FF3545432F14B8F1000F1ED07542291EE3
:100A70001EDDC9F100021CE0B8F1010F4FF00000CB
:100A800001D0302103E0F24305E02154401CB04284
:100A9000FBDB30460022002121540B99C1F808806D
:100AA000C1E900200FB0BDE8F08FBD1B6D1CDEE773
:100AB0004A4600DA694206A800F0DEFB06AB93E87E
:100AC000070003AB83E8070050460A9902F0A3FD34
:100AD0008DE80700A0F500501F3800900398002D06
:100AE0000ADD42F21F014A460844002303A903908D
:100AF000684603F00CF809E0A0F500504A461F389C
:100B0000002303A90390684603F016F88DE8070058
:100B10000004000C03D04FF0FF30410800E0104605
:100B2000B8F1000F03D00022009215461EE0751E9A
:100B300005D4FFF723FF303262556D1EF9D5B34659
:100B40000122084302D000227F1C04E020783028D4
:100B500001D100227F1E002A099784D01DE0112DAB
:100B600007DAFFF70BFF303262556D1C50EA0102C5
:100B7000F5D1084302D00098C8B10EE00021681EEC
:100B800005E0235C625C63542254401E491C814290
:100B9000F7DBAB46A81B401E0990002004F80B00B1
:100BA0000B98099AC0F80880C0E9002B7AE7112653
:100BB0004FF0000857E72DE9F04F88460446D21D54
:100BC00022F0070191B0D1E90001CDE90A0103F05B
:100BD000EAF802460B98C00F01D02D2007E02068EC
:100BE000810701D52B2002E0202101EAC000032A61
:100BF000099001D0072A05DB03464146204600F054
:100C0000FBFA0BE12078800601D5E06900E00620C0
:100C1000B8F1650F814606D0B8F1660F18D0B8F16B
:100C2000670F70D131E00020B9F1110F009001DBA6
:100C3000112301E009F101030AAA01A90CA8FFF799
:100C4000E2FEDDE90C70002609F10105834647E06C
:100C500001204B4600904FF000470AAA01A90CA8BA
:100C6000FFF7D1FEDDE90DB00C995D46002610B905
:100C700009F101000D18B9EB050003D4C0F1FF36EE
:100C800009F10105A5EB09002BE0B9F1010F01DA2B
:100C90004FF001090020B9F1110F0090484601DD25
:100CA000112300E003460AAA01A90CA8FFF7ABFE36
:100CB000DDE90C704D4600268346207800070AD4F3
:100CC000AB4500DA5D4601A8012D04DD411911F89C
:100CD000011C302907D04F4502DA17F1040F04DA5E
:100CE000012082460FE06D1EEEE7002F02DCED1BB7
:100CF0003E4403E0781CA84200DD7D1CB81B00F1D7
:100D0000010A4FF000472078000703D4AA4501DB11
:100D10004FF0FF3A0021B7F1004F0DF143088DF875
:100D2000431024D002202B23002F01DA7F422D23F1
:100D30000A21021EA0F1010000DC5FB197FBF1FC6B
:100D400097FBF1F201FB1C7C17460CF1300C08F804
:100D500001CDEEE7A8F1010003702188090501D556
:100D6000452100E06521A0F1010800F8011C099867
:100D70000FA9A1EB0807FF1D00B10120411901EBEC
:100D8000EA70A1693844081A401EA0612078C006A4
:100D900002D42046FFF79EFA099828B1D4E9012130
:100DA0009047206A401C20622078C00622D5204649
:100DB000FFF790FA1EE0002E04DBB34502DD01A828
:100DC000805D00E03020D4E901219047206A401C7A
:100DD0002062761CAAF101005FEA000A0AD100F045
:100DE00007FAC0680168405CD4E901219047206A95
:100DF000401C2062281EA5F10105DCDC07E0D4E9D7
:100E0000012118F8010B9047206A401C2062381E0F
:100E1000A7F10107F3DC2046FFF772FA032011B0B7
:100E200041E600002DE9F04F04460D46D21D22F0A8
:100E3000070089B0D0E900974846394602F0B3FF71
:100E40000246F80F01D02D2307E02068810701D565
:100E50002B2302E0202101EAC0038DF820300BB1E2
:100E6000012000E00020032A824601D0072A04DB8B
:100E70002946204600F0C0F93FE12078800601D4E1
:100E80000D2500E0E569C7F30A560D2D49DA00216A
:100E90004FEA175B08464FF00000002F00F44000B7
:100EA00007DA00EB80004FF4400100EBD07001EA5C
:100EB00060008115012901DD4FF0FF3100224FEA6A
:100EC000850CBCF1180F06D31346ACF118004FF097
:100ED0008052C24003E04FF4801323FA0CF30CF16C
:100EE0000C0CBCF1200F04D3ACF1200C09FA0CF06F
:100EF00001E007FA0CF000294FF0004801DD18B9B5
:100F00000FE00ED140450CD319EB02095F4121B926
:100F1000404502D19F4329EA0209BBEB175F00D08D
:100F2000761C2088000502D57B48784402E07A4888
:100F30007844193808AA302302F80A30037C0AF1F1
:100F40000101002E0AF1020A53546A4602DC4FF0F6
:100F5000300101E04FF031014FF001088DF8001031
:100F600002D0A6F2FF3603E059EA470100D06B4EEB
:100F7000002D02DC2178090704D54FF002082E214C
:100F80008DF80110C44600210BE0C7F303433F0175
:100F9000C35C491C6D1E02F80830052908F10108E0
:100FA00001DA002DF1DC00210CE000EB1973491C83
:100FB0001B786D1E082902F808304FEA091908F15C
:100FC000010801DA002DF0DC21688B0602D516E05D
:100FD000A8F10108E04505DD02EB080313F8013C28
:100FE000302BF5D0B8F1000F09DD02EB080313F840
:100FF000013C2E2B03D1090701D4A8F10108002DD3
:1010000005DD3E2102F808106D1E08F10108407C44
:10101000002E02F8080008F1010804DA2D207642BB
:1010200002F8080002E02B2002F808000A214FF421
:101030007A70864208F101080BDB96FBF0F330333F
:1010400002F8083096FBF0F308F1010800FB136684
:1010500001E0642E0CDB642096FBF0F3303302F8E1
:10106000083096FBF0F308F1010800FB136601E07D
:101070000A2E06DB96FBF1F0303002F8080008F18A
:10108000010896FBF1F001FB1060303002F8080017
:10109000A16908F1010808EB050202EB0A00081A31
:1010A000A0612078C00602D42046FFF713F9216A18
:1010B00008AE01EB0A00206204E0D4E9012116F831
:1010C000010B9047BAF1010AF7D22078C00602D589
:1010D0002046FFF7FFF86E4609E016F8010B3E28A0
:1010E0000FD0D4E901219047206A401C2062B8F15A
:1010F0000108F2D22046FFF703F909B00320BDE84A
:10110000F08F206A2844206203E0D4E901213020D6
:1011100090476D1EEBD3F8E7652F000002FCFFFF40
:1011200010B5436913B1AFF3008001E0FFF708FB8E
:10113000012010BD128800F1240182840022C284A3
:101140000122EDE711684FF0FF32E9E72DE9F041A8
:1011500016460C46054600F043F8036893F8010173
:10116000012807D0FF2C12D8185D80B101202C7007
:10117000BDE8F081D3F807013246214603F2071398
:10118000C7182846BC46BDE8F041002360474FF031
:10119000FF30EDE7754600F0EBF8AE460500694616
:1011A000534620F00700854618B020B5FFF750F8E9
:1011B000BDE820404FF000064FF000074FF0000858
:1011C0004FF0000BAC46ACE8C009ACE8C009ACE895
:1011D000C009ACE8C00921F007018D467047000046
:1011E00010B500F005F8001D10BD00BF1D2C00005B
:1011F00000487047300000202DE9F0411F460446AA
:1012000003260168072A01F4006004DB08B116A573
:1012100005E016A503E008B115A500E015A521F02D
:1012200010002060A069C01EA0610FB1401EA06127
:101230002046FFF74FF84FB1D4E9012138469047D7
:10124000206A401C2062C01C206206E0206AFAE787
:10125000D4E9012115F8010B9047761EF8D22046FB
:10126000FFF74EF8BDE8F0814E414E006E616E0012
:10127000494E4600696E66002DE9F04781461646E4
:101280008AB0354878440DC88DE80D00324878445E
:10129000801C03AC0DC884E80D0041F69B30084467
:1012A000372190FBF1F290FBF1F5A5F1800501FBF0
:1012B00012041B3C02D56442012000E00020DFF84C
:1012C00098A080460027FA44AAF1BE0A0EE0E00783
:1012D0000AD03246684607EB470101230AEB810139
:1012E00002F02AFC8DE8070064107F1C002CEED170
:1012F000194F7F44AE3F19E0E80715D007EB041003
:101300000DF1180A90E80E008AE80E00C068F0425D
:1013100001D1981908903246012306A903A802F0CA
:101320000BFC03AB83E807006D10641C002DE3D1B8
:101330004FF0010332466946B8F1000F03A802D00E
:1013400002F0E5FB01E002F0F7FBC9E90001C9F892
:1013500008200AB0BDE8F0879C2C000010B50446B8
:10136000AFF300802046BDE81040FEF75CBF0000F0
:1013700000487047100000204FF0013C50F8042B4B
:1013800051F8043B9A4221D1A2EB0C03934313EA98
:10139000CC1317D150F8042B51F8043B9A4215D1C5
:1013A000A2EB0C03934313EACC130BD150F8042B9C
:1013B00051F8043B9A4209D1A2EB0C03934313EA80
:1013C000CC13DBD04FF00000704700BFD01A01BA39
:1013D000B1FA81F101F0180122FA01F0CB40DBB241
:1013E000C0B2C01AC1F120012CFA01F3D11A914305
:1013F00011EAC311E6D1704701491820ABBEFEE7E0
:101400002600020070470000010901EB810100F095
:101410000F0000EB4100C0B270470000FEE7000083
:10142000704700004CF6CD41CCF6CC41A0FB011238
:10143000D10801EB8102A0EB420040EA0110C0B2EA
:1014400070470000EFF3108072B600BFFEE70000A7
:10145000B0B5044600F032F9054640F20600C2F28B
:1014600000000078611C18BF044400BF00F026F99A
:10147000401BA042FAD3B0BD2DE9F04F84B00E68F6
:101480000290002E00F0038140F20C4E40F2004723
:1014900041F200420298C4F2010EC4F20107C4F204
:1014A00001020423002401254FF0000A4FF0000937
:1014B000904208BF032300930AE000BF01250E6895
:1014C0000AF1010A36FA0AF204F1040400F0DF809E
:1014D00005FA0AFB16EA0B08F1D04A684FF6FF73CB
:1014E000C1F210039A4211DC122A54D80298DFE8A4
:1014F00002F0350A434753535353535353535353F3
:101500005353534A4E00D1F80C9045E04FF6FF7309
:10151000C1F221039A4210DC0023C1F211030298A8
:101520009A421BD00023C1F212039A4216D0002324
:10153000C1F221039A4211D02EE00023C1F222030E
:1015400002989A420AD00023C1F231039A4205D090
:101550000023C1F232039A421ED100BF8A6842B111
:10156000012A14BFC0F814B0C0F810B04FF0080939
:1015700012E04FF004090FE0CA6802F108090BE01D
:101580004FF0000908E0CA6802F1040904E0CA68E3
:1015900002F10C0900E0029822460346B8F5807F6C
:1015A00024BF203A04331D684FF00F0C0CFA02F6EA
:1015B000B54309FA02F22A431A60CA79D2067FF5C6
:1015C0007DAF41F21803CDF80490C4F202031A680B
:1015D000F34642F001021A601A684FEA9A0E02F0CE
:1015E00001020392039AA7F57E72B94652F82E3093
:1015F00004F00C0740F600060CFA07F5C4F20106E9
:10160000B04223EA050C10D040F60043C4F20103B7
:1016100098420CD041F20003C4F201039842009BAF
:101620004FF0010508BF022303E0002300E001237F
:101630000125BB4043EA0C0342F82E304E684F466A
:10164000F202D9F8082054BF22EA080242EA08024E
:10165000DE46DDF80490BA60DEF80020B30254BF25
:1016600022EA080242EA0802CEF800207A68B303B0
:1016700054BF22EA080242EA08027A603A68F30399
:1016800054BF22EA080242EA08023A6017E704B0AF
:10169000BDE8F08F8068084018BF01207047000047
:1016A000C26802EA0103914341EA034101617047C4
:1016B000002A08BF090401617047000040F2481089
:1016C000C2F200000068704770B5B0B3044690F8ED
:1016D0003D0028B9002084F83C00204600F0B8FA0C
:1016E000242084F83D002068016821F00101016098
:1016F000016841F400410160016821F4004101608A
:1017000000F018FC48F28041C0F21E0140F60012C1
:10171000666888424FF00001C0F23D0248F2A16CB9
:101720004FF0000338BF01219042C0F2010C38BFD6
:101730000123664538BF0B460BB1012070BD4DF645
:101740008361C4F21B31A0FB01122168930C4D6828
:10175000664525F03F0545EA92424A600A6A22F052
:101760003F0C09D34FF496725A4344F6D353C1F257
:101770006203A2FB03239B095A1C42EA0C020A6281
:1017800048F2A063CA69C0F201039E424CF6FF739F
:1017900022EA030C0AD801387200B0FBF2F00130E3
:1017A0006FF31F30042898BF04202BE0A368A0F13A
:1017B000010E9BB119207043BEFBF0F004220130F2
:1017C00062F31F30000512D09BB119207043BEFB9D
:1017D000F0F00422013062F31F3011E006EB460006
:1017E000BEFBF0F001306FF31F300005ECD101209B
:1017F00008E006EB4600BEFBF0F001306FF31F304F
:1018000040F4004040EA0C00C8610868D4E90723AE
:1018100020F0C000104318430860886848F2FF3287
:1018200004F10C0690434CCE18431043A569886020
:10183000C86820F0FF0030432843C860086840F0C3
:101840000100086000202021206484F83D102063FE
:1018500084F83E0070BD00002DE9F04F83B00446CF
:1018600000201E4615460F460290FFF727FF94F80A
:101870003D1020290FD102218146C0F210012046DF
:1018800001221923CDF8009000F04CFE18B994F80D
:101890003C00012803D1022003B0BDE8F08F0121F4
:1018A000206884F83C100168DDF83080C90703D156
:1018B000016841F0010101600168424621F40061C4
:1018C0000160222084F83D00102084F83E000020B2
:1018D000206465626685608D394620850020CFF6DC
:1018E000FF70E06220464B4600F00EFD18B101206B
:1018F00003B0BDE8F08F218D01290DD011BB002070
:101900000190206841690191816901910199016803
:1019100041F40071016037E02068016821F48061C2
:101920000160EFF3108072B60020019020684169D9
:101930000191816901910199016841F4007101608F
:1019400062B621E020680229026813D142F40061E6
:101950000160EFF3108072B60020019020684169A9
:101960000191816901910199016821F4806101600F
:1019700062B609E042F48061016000210191416991
:101980000191806901900198268D002E00F0AA80B7
:10199000042740F2000A4BF2895BC0F20107C2F251
:1019A000000AC1F2F84B23250EE009690170606A54
:1019B000218D01306062481E2085608D0138608570
:1019C000268D002E00F08E802046032E09D8012E91
:1019D00027D141464A4600F049FE002800F07D80AC
:1019E00085E741464A4600F041FE00287FF47FAF7C
:1019F0002068616A00690870606A228D0130013ACE
:101A0000606222852168638D013B63854B695B07BA
:101A1000D6D592B2032AC8D10A6822F480620A603D
:101A2000C3E7394600224346CDF8009000F07AFD26
:101A3000022E18D100287FF45AAFEFF3108072B64F
:101A40002068616A026842F40072026000690870EE
:101A5000606A218D01306062481E2085608D0138EA
:101A6000608562B639E000287FF441AF20680168E4
:101A700021F480610160EFF3108072B62068616A22
:101A800000690870606A218D01300139606221852A
:101A9000618D01396185DAF80010C908A1FB0B12CC
:101AA000110A6943029100BF02990139029102991A
:101AB00019B321684A695207F6D50A6842F40072E0
:101AC0000A6009690170606A218D01306062481EF8
:101AD0002085608D0138608562B62068616A006982
:101AE000087064E7202084F83D00002084F83E0060
:101AF00084F83C0003B0BDE8F08F00202021206373
:101B000084F83D1084F83E00216C41F020012164EE
:101B100062B684F83C00EAE62DE9F04782B01E4642
:101B2000174689460446FFF7C9FD94F83D10202961
:101B30000ED102210546C0F21001204601221923D0
:101B4000009500F0EFFC18B994F83C00012803D18F
:101B5000022002B0BDE8F0870121206884F83C1023
:101B60000168DDF82880C90703D1016841F001014F
:101B7000016001684FF0000A21F40061016021203A
:101B800084F83D00102084F83E00C4F840A067624D
:101B90006685608D494620850020CFF6FF70E062A3
:101BA000204642462B4600F02FFC18B1012002B01F
:101BB000BDE8F087CDF804A02068416901918069F3
:101BC0000190019806E000BF204641462A4600F0F9
:101BD00073FC20BB208D58B3204641462A4600F0B6
:101BE00081FDE0B9606A2168024612F8013B0B6191
:101BF0006262628D013A6285228D571E27854B698C
:101C00003F0418BF13F00403DED0437802300B61A9
:101C10006062608D01386085901E2085D4E7206C5D
:101C20000428C3D12068016841F400710160BDE758
:101C30002068016841F400710160202084F83D00B3
:101C4000002084F83E0084F83C0002B0BDE8F08734
:101C500010B586B0016845F20040C4F20000814230
:101C60004FF00001CDE90411CDE9021101D006B019
:101C700010BD41F21804C4F20204216800F5384096
:101C800041F008012160216801F0080101910199EA
:101C9000C0210291122103910321059102A9FFF7AE
:101CA000EBFB606840F400106060606800F40010B6
:101CB0000190019806B010BD40F2060040F24811B4
:101CC000C2F20000C2F2000100780A681044086005
:101CD0007047000080B542F20000C4F202000168C3
:101CE00041F010010160032000F062F80F2000F0C5
:101CF00005F800F02BF8002080BD0000B0B540F2E0
:101D00000602C2F2000240F200011278C2F20001A3
:101D10004FF47A730968B3FBF2F20446B1FBF2F1B7
:101D2000084600F0D3FA0F2C4FF001050CD858B933
:101D30004FF0FF3021460022002500F029F840F244
:101D40000800C2F2000004602846B0BD82B041F233
:101D50001800C4F202000168022241F00101016092
:101D6000016801F0010101910199416841F0805140
:101D70004160406800F08050009000980420C4F258
:101D80000100016862F31A61016002B0704700004F
:101D900070B514460D46064600F0BEFD29462246A3
:101DA00000F03EFD0146304600F0BEFD70BD000073
:101DB00080B500F0CBFD80BD2DE9F04381B0002857
:101DC00000F0878042F20008C4F202080446D8F806
:101DD00000000D4600F0070088420CD2D8F8000041
:101DE00020F007002843C8F80000D8F8000000F0F1
:101DF0000700A8426DD1206841F204098107C4F2AE
:101E0000020917D5410705D5D9F8001041F4E06162
:101E1000C9F80010010705D5D9F8001041F4605148
:101E2000C9F80010D9F80010A26821F0F0011143A0
:101E3000C9F80010C00745D1D8F8000000F007002D
:101E4000A8420CD9D8F8000020F007002843C8F8B1
:101E50000000D8F8000000F00700A84239D120683F
:101E6000410707D5D9F80010E26821F4E061114379
:101E7000C9F80010000708D5D9F80000216920F43E
:101E8000605040EAC100C9F8000000F065F8D9F8D8
:101E9000001043F63C72C1F30311C0F60002515C1E
:101EA00040F2000220FA01F140F20800C2F2000004
:101EB0000068C2F200021160FFF720FF002001B0AD
:101EC000BDE8F0836068012807D159F8041C890334
:101ED0000CD4012001B0BDE8F08359F8041C02289D
:101EE00002D18901F5D501E08907F2D5D9F80010B2
:101EF00021F003010843C9F80000FFF7DFFB0646A5
:101F000041F28837D9F80000616800F00C00B0EBAE
:101F1000810F91D0FFF7D2FB801BB842F2D903208A
:101F200001B0BDE8F083000040F20000C2F2000002
:101F30000068704780B5FFF7F7FF41F20401C4F273
:101F40000201096843F64C72C1F30221C0F6000297
:101F5000515CC84080BD000041F2040CC4F2020C88
:101F6000DCF8003003F00C00082841F20020C0F239
:101F70007A0018BF7047C3F383420AA18A5CD90371
:101F800005D440F60010C0F23D0050437047DCF825
:101F9000001008A3C1F34041595C5043B0FBF1F07D
:101FA000704700BF02030405060708090A0B0C0D61
:101FB0000E0F1010010200002DE9F04182B0002840
:101FC00000F0C4800446007841F20006C007C4F265
:101FD000020643D0706800F00C00042817D0706827
:101FE00000F00C00082802D17068C0030FD46568A7
:101FF0009DB1B5F5803F06D03068B5F5A02F0DD165
:1020000040F480203060306840F480300CE030686C
:10201000800323D5606808BB98E0306820F48030E6
:102020003060306820F480203060FFF747FB002DDF
:10203000054610D03068800310D4FFF73FFB401BEB
:102040006428F7D908E100BFFFF738FB401B64287C
:102050004FF0030077D830688003F5D420788007EC
:1020600018D5706810F00C0F07D0706800F00C00E5
:10207000082826D17068C00323D43068800702D5B1
:102080002069012862D13068616920F0F80040EAD7
:10209000C1003060207800073DD5A06938B300202A
:1020A000C4F242200121C0F88014FFF707FB054667
:1020B000706A80072DD4FFF701FB401B0228F7D977
:1020C000CAE02069002840F20000C4F2422000F07B
:1020D0009A8001210160FFF7F1FA05463068800718
:1020E000D1D4FFF7EBFA401B0228F7D9B4E0002067
:1020F000C4F242200021C0F88014FFF7DFFA054641
:10210000706A800707D5FFF7D9FA401B0228F7D974
:10211000A2E000F09DFB207840071BD4E5698DB15B
:10212000706800F00C0008284CD1012D0ED07068AA
:10213000216A00F480328A4208D1616A00F470108A
:10214000884203D1002002B0BDE8F081012002B036
:10215000BDE8F081F069C0000BD4F0694FF00108D0
:1021600040F08050F061F06900F0805001900198DB
:1021700001E04FF0000847F20007C4F2000738689A
:10218000C00510D4386840F480703860FFF796FAC4
:10219000054600BF3868C00505D4FFF78FFA401B1D
:1021A0006428F7D958E0E568002D3DD0012D05D011
:1021B000306A052D39D140F004003062306A40F0B9
:1021C000010038E00027C4F2422700203866FFF7FC
:1021D00075FA022D05460BD13068800154D5FFF702
:1021E0006DFA401B02284FF00300F5D9ABE700BFA2
:1021F00030688001A6D5FFF761FA401B02284FF036
:102200000300F5D99FE700210160FFF757FA054663
:10221000306880077FF53EAFFFF750FA401B022879
:102220004FF00300F4D98EE7306A20F001003062ED
:10223000306A20F004003062FFF740FA002D0546B6
:1022400041F2883714D000BF306A800713D4FFF7FB
:1022500035FA401BB842F7D9032002B0BDE8F0813F
:10226000FFF72CFA401BB8424FF003003FF66BAF6C
:10227000306A8007F4D4B8F1000F3FF44FAFF06933
:1022800020F08050F06149E7206AB0F5803F05D129
:102290007168A26821F40031114371607168626A4B
:1022A00021F4741110430843706001203866FFF771
:1022B00005FA0446306880013FF544AFFFF7FEF9A8
:1022C000001B02284FF00300F4D93CE780B500F072
:1022D000D7FA80BDFEE700000268516949054FF05A
:1022E00000010FD56FF4806353612022016380F8F1
:1022F0003D2080F83E10026C42F00402026480F837
:102300003C100121084670472DE9F04383B0044694
:1023100000681D461646E26A03680F4643F4806172
:1023200012F5803F016018BF012A30D1016841F4E5
:102330008071016020464FF0011100223346009564
:1023400000F0F0F850B120680068C00544BF4FF4B9
:1023500000702064032003B0BDE8F083206940F2E0
:102360000208B0F5804FC0F2010816D147F0010015
:10237000C0B2216832460861204641462B4600F033
:1023800021F9002818BF012003B0BDE8F083082A16
:10239000CCD0216B1129C9D0CCE7062000EAD7198F
:1023A000206809F1F001016108F10601204632467A
:1023B0002B4600F007F948B92068F9B201612046C0
:1023C000414632462B4600F0FDF818B1012003B01B
:1023D000BDE8F08300200290206800224169334666
:1023E0000291816902910299016841F48071016052
:1023F00020464FF00111009500F094F80028A2D17A
:1024000049F0F100B5E700002DE9F04182B0044643
:10241000C06A1D46164610F5803F0F4618BF0128BA
:1024200023D12068016841F48071016020464FF09B
:10243000011100223346009500F074F850B1206875
:102440000068C00544BF4FF400702064032002B050
:10245000BDE8F081206940F20208B0F5804FC0F27B
:10246000010808D107F0FE0018E00828D9D0206B39
:102470001228D6D0DAE7062000EAD7102168F0301B
:10248000086108F10601204632462B4600F09AF812
:1024900018B1012002B0BDE8F081F8B221683246DF
:1024A0000861204641462B4600F08CF8002818BFF2
:1024B000012002B0BDE8F081F0B581B004460068AB
:1024C000406940071AD415460E464F1C08E000BF6D
:1024D00020684069400714D52068406940070DD442
:1024E0002046FFF7F9FEC8B9002FF5D0FFF7E6F850
:1024F000002EEDD0401BB042EED9E9E7002001B03C
:10250000F0BD00202021206384F83D1084F83E00B7
:10251000216C41F02001216484F83C00012001B0CD
:10252000F0BD00002DE9F047DDF820809946164601
:10253000044601F47F078DB203F1010A11E000BFE8
:1025400020681821B7F5803F08BF142140582A465B
:1025500008BF2A461040801AB0FA80F04009B04205
:1025600020D020681821B7F5803F08BF14214058BB
:102570002A4608BF2A461040801AB0FA80F0400967
:10258000B0420CD1BAF1000FEBD0FFF797F8B9F1D8
:10259000000FD5D0A0EB08004845E2D9D0E70020D5
:1025A000BDE8F08700202021206384F83D1084F8E6
:1025B0003E00216C41F02001216484F83C000120A0
:1025C000BDE8F0872DE9F04381B098469146044676
:1025D00001F47F078DB2561C0DE000BF2068182162
:1025E000B7F5803F08BF142140582A4608BF2A4645
:1025F0001040904228D120681821B7F5803F08BFCD
:10260000142141582A4608BF2A46114091420ED053
:10261000416949050FD4002EEDD0FFF74FF8B9F10D
:10262000000FDBD0A0EB08004845E4D9D6E7002036
:1026300001B0BDE8F083016841F4007101606FF4FE
:1026400080614161042000E02020002120222163DC
:1026500084F83D2084F83E10226C1043206484F8F6
:102660003C10012001B0BDE8F083000070B50446C5
:102670000068154650F8143F5A0615D40E4608E077
:102680002068406940061DD5206850F8141F49068F
:102690000AD40168C90609D4FFF710F8002EEFD05C
:1026A000401BB042F0D9EBE7002070BD6FF0100185
:1026B000016000202021206384F83D1084F83E0052
:1026C000216C09E000202021206384F83D1084F86B
:1026D0003E00216C41F02001216484F83C0001207F
:1026E00070BD0000F0B581B0044600684069000686
:1026F0001AD415460E464F1C08E000BF20684069FA
:10270000000614D52068406900060DD42046FFF766
:10271000E3FDC8B9002FF5D0FEF7D0FF002EEDD0B5
:10272000401BB042EED9E9E7002001B0F0BD002027
:102730002021206384F83D1084F83E00216C41F094
:102740002001216484F83C00012001B0F0BD0000AC
:10275000F0B585B0002541F21800CDE90355CDE96B
:102760000155C4F20200016840F6000441F0200166
:1027700001600168C4F2010401F020010091009998
:102780000168012241F0040101600168082601F09E
:102790000401009100990168012741F008010160DE
:1027A0000068082100F00800009000982046FEF71D
:1027B0007FFF072001A9A1C101AD20462946FEF7F0
:1027C0005BFE0320CDE9016704902046294603976C
:1027D000FEF752FE05B0F0BD80B540F2D00045F2E4
:1027E0000041C2F20000C4F2000148F2A0620023DE
:1027F0004FF4804CC0F2010280E80E00C0E9033CB7
:10280000C0E90533C0E90733FEF75EFF002808BFC3
:1028100080BDFEF717FE0000FEE70000FEE70000A7
:1028200000F0070080F00703042B28BF04234FF0BB
:10283000FF3C03380CFA03F338BF00209943814072
:102840000CFA00F022EA00000843704770470000CD
:1028500081B040F20000C2F20000006844F6D3519B
:10286000C1F26201A0FB0101480A009000BF00987C
:10287000411E00280091F9D101B070477047000057
:10288000B0B501380024B4EB106F1CBF0120B0BDFF
:102890004EF21005CEF2000568604FF0FF300F21B8
:1028A00000F042F80720AC6028602046B0BD000070
:1028B00080B5FFF701FA80BD70B590B006AC204638
:1028C0002821FDF757FE01200A901020002502263E
:1028D0000B9020460595CDE90355CDE901550696A7
:1028E000CDE90D650F95FFF767FB78B90F20CDE9AE
:1028F00001064FF480600395CDE9040501A800218D
:10290000FFF75AFA002804BF10B070BDFEF79AFD19
:1029100070470000FEE700004EF60C50CEF20000BB
:102920000068C0F3022070474EF6145300F00F0207
:10293000CEF2000309011A4400F16043B0F1FF3FF9
:10294000C8BF03F564421170704700004EF60C5189
:10295000CEF200010A684FF6FF031A4060F30A2224
:1029600042F0806040F0FD7008607047B0B540F202
:10297000B801C2F2000109780139072988BFB0BD4A
:102980000446DFE801F0040B11182C48565D40F2B4
:10299000C005C2F200052846172142E040F2C005FA
:1029A000C2F20005681C04E040F2C005C2F2000556
:1029B000A81C3B2135E040F2C005C2F2000595F9A4
:1029C0000610687989B200F0A1FA41B2281D0122EF
:1029D000234600F00BFE284600F038FD25E040F2CB
:1029E000C005C2F20005681D0C210122234600F03B
:1029F000FDFD95F90610687989B200F087FA95F91E
:102A000004108142C8BF287140F2C000C2F2000029
:102A100000F01CFDB0BD40F2C005C2F20005A81DCB
:102A200063210022234600F0E1FD284600F00EFD60
:102A3000B0BD40F2C005C2F20005E81D172106E056
:102A400040F2C005C2F2000505F108003B2100225A
:102A5000234600F0CBFD284600F0D6FCB0BD0000B8
:102A600070B584B0FEF72AFE40F27005C2F2000590
:102A70002968401AB0F5967F4FD340F2C004C2F2E5
:102A80000004204600F030FC40F20406C2F20006CA
:102A9000307894F90720B0FA80F0400994F90830B2
:102AA00030701FA16846FDF7FFFB307808BB40F28D
:102AB000B800C2F200000078082806D0072808D124
:102AC00042F22000ADF8000003E042F22000ADF831
:102AD000030040F22C14C2F200042046002105221B
:102AE00000F006FB43F67071C0F60001204600F0CE
:102AF0005BFB40F22C14C2F20004204601210522A7
:102B000000F0F6FA43F69971C0F600016A462046D5
:102B100000F04AFBFEF7D2FD286004B070BD00BF94
:102B2000253032643A2530326400000070B540F23E
:102B3000B804C2F200042078092821D088BB40F2F2
:102B4000C000C2F20000007805380F2829D340F2F7
:102B50007405C2F200052E68FEF7B0FD16B32968B1
:102B6000401A42F2107188421BD30020286040F2C4
:102B70002C10C2F2000000F03BFA0920207070BD5A
:102B800040F2C000C2F20000007805380E2888BF6D
:102B900070BD40F22C10C2F2000000F03DFA00209F
:102BA000207070BD286070BDB0B50446C068218A31
:102BB000FEF770FDA178884205D0A0700120E0707A
:102BC000FEF77CFD6060FEF779FD6168401A0F2812
:102BD00005D3E07818B1A07820700020E070257847
:102BE0006078854208BFB0BDFEF768FDB5B1A16849
:102BF000401AB0F57A7F02D8204600F06DF82046E2
:102C000000F042F8FEF75AFDA168401A40F6B831CC
:102C1000884207D3204600F091F803E0A0602046E8
:102C200000F00CF820786070B0BD000040F2011395
:102C3000038001238370C1600282704710B540F2A7
:102C4000A001C2F2000188420CD040F27801C2F229
:102C50000001884218BF10BD40F23C14C2F20004CB
:102C6000002004E040F24414C2F200040120FFF707
:102C70007DFEFEF723FD2060FEF720FD40F24011AF
:102C8000C2F20001086010BD80B540F2A001C2F29E
:102C9000000188420DD040F27801C2F20001884262
:102CA0000CD040F28C01C2F20001884218BF80BDF6
:102CB0000AE040F24410C2F2000003E040F23C108F
:102CC000C2F2000000210160FEF7F8FC40F2401162
:102CD000C2F20001086080BD10B540F28C01C2F262
:102CE000000140F2B8048842C2F2000419D12078F1
:102CF000082816D8DFE800F007090B0D0F1105139F
:102D0000050000200CE001200AE0022008E003207A
:102D100006E0042004E0052002E0062000E0082090
:102D200020702078092818BF10BD40F22C10C2F284
:102D3000000000F071F90020207010BD10B540F2C5
:102D40008C01C2F2000188421CD140F2B800C2F2EC
:102D500000000178002918BF10BD40F22C14072193
:102D6000C2F200040170204600F06AF920460021FA
:102D7000052200F0BDF943F67071C0F6000120464F
:102D800000F012FA10BD000010B540F2C000C2F20F
:102D900000000178C2798A421AD14178007A8842CB
:102DA00016D1FEF78BFC40F2B404C2F20004216895
:102DB000401AB0F57A7F38BF10BD40F60000C4F26B
:102DC00001000821FEF76CFCFEF778FC206010BDC6
:102DD00040F60000C4F2010008210122FEF768FC61
:102DE00010BD000045F62942CCF28F2200F003010D
:102DF000504345F6284C4FEAB002C0F28F2CB1FA8E
:102E000081F162454FF000024FEA511188BF012263
:102E100011404DF20B7200234FEA3010C0F2A302B2
:102E2000904238BF012343EA0100704780B540F269
:102E3000B800C2F200000078092888BF80BDDFE832
:102E400000F00F0505050505050A0A0F00F03CFB1B
:102E500000F07AF880BDFFF703FE00F075F880BD42
:102E600000F006F8FFF790FFFFF760FE80BD00005E
:102E7000F0B583B0FEF722FC40F2BC07C2F20007B7
:102E80003968401AB0F57A7F3DD340F2C005C2F2EE
:102E90000005284600F028FA40F22C14C2F2000483
:102EA00020460021042200F023F995F9002095F92D
:102EB000013095F9026043F68A71C0F600012046A0
:102EC000009600F071F920460121012200F010F96E
:102ED000284600F04FFA43F65471C0F6000195F908
:102EE000043095F9056095F9065001EB800243F630
:102EF0007671C0F6000120460096019500F054F965
:102F0000FEF7DCFB386003B0F0BD00000C2818D8D9
:102F10000122824041F2AA531A421CBF1F2070476F
:102F200012F4256F1CBF1E207047022809D180B5FE
:102F30000846FFF757FF0028BDE880401CBF1D2052
:102F400070471C207047000010B540F24414C2F2D4
:102F500000042068B8B1FEF7B1FB2168401AB0F553
:102F60007A7F10D9FEF7AAFB40F22414C2F20004C3
:102F70002168401AB0F5967F05D90120FFF7F6FCCD
:102F8000FEF79CFB206040F23C14C2F20004206873
:102F9000B8B1FEF793FB2168401AB0F57A7F10D9DB
:102FA000FEF78CFB40F22814C2F200042168401A9C
:102FB000B0F5967F05D90020FFF7D8FCFEF77EFB21
:102FC000206040F24014C2F20004206878B1FEF79D
:102FD00075FB2168401A42F21171884238BF10BD5A
:102FE00040F2B8010020C2F200012060087010BD5C
:102FF000B0B582B004464068217800254FF0640CDB
:103000000DF1070201238DF80750CDF800C0FEF73F
:1030100083FD257202B0B0BDB0B582B0044608226F
:10302000406821788DF80720642200920DF1070294
:1030300001230125FEF770FD257202B0B0BD00002E
:10304000B0B58021044600F061F8462520462021D5
:1030500000F082F8013DF9D1B0BD000010B5044682
:1030600041600270012020723220FEF7F1F9204603
:10307000302100F04BF80520FEF7EAF92046302118
:1030800000F044F80120FEF7E3F92046302100F07B
:103090003DF80A20FEF7DCF92046202100F036F842
:1030A0000A20FEF7D5F92046282100F02FF801204C
:1030B000FEF7CEF92046082100F028F80120FEF79F
:1030C000C7F92046012100F021F80120FEF7C0F9E0
:1030D0000120FEF7BDF92046062100F017F8012077
:1030E000FEF7B6F920460C2100F010F810BD0000E4
:1030F000012904D0002908BF42F0800201E042F01B
:10310000C00280B5D1B200F001F880BD80B582B0B8
:10311000027A01F0F003002A18BF01224FEAC20C24
:1031200043EAC202131D8DF805204CEA01128DF806
:103130000430111D43688DF8061001788DF80720C2
:103140004FF0640C01AA18460423CDF800C0FEF726
:10315000E3FC02B080BD000080B582B0027A01F0CD
:10316000F003002A18BF01224FEAC20C43EAC20250
:10317000531D01324CEA01118DF804308DF8052001
:103180004A1D43688DF806204A1C01788DF80720F7
:103190004FF0640C01AA18460423CDF800C0FEF7D6
:1031A000BBFC02B080BD000082B070B586B08C461A
:1031B0000DF103050446CDE90A230AAB2846112187
:1031C00062460593FDF756F89DF8030048B10026C6
:1031D000C1B22046FFF7C0FF0136F0B2285C0028DC
:1031E000F6D106B0BDE8704002B07047FEF772FD40
:1031F000FFF762FBFFF7ACFAFFF7EEFA6420FEF789
:1032000027F940F22C1840F2D004C2F20008C2F2B2
:103210000004404621464E22FFF720FF204600F0E2
:1032200035F840F2780440F60005C2F20004C4F21A
:103230000105204629460122FFF7F8FC40F28C06E2
:10324000C2F20006304629460222FFF7EFFC40F2A8
:10325000A007C2F20007384629460422FFF7E6FC21
:1032600040F2C000C2F2000000F016F84046FFF73E
:10327000E7FE00BFFFF7DAFD2046FFF795FC30467A
:10328000FFF792FC3846FFF78FFCF3E740F2CC01E2
:10329000C2F200010860704770B582B040F2CC0500
:1032A000C2F200050446082128688DF8051064263E
:1032B0000DF10502D02101230096FEF72DFC2868B0
:1032C0000DF10602D02102230096FEF7C5FA9DF803
:1032D0000600FEF799F89DF8071020720846FEF7E1
:1032E00093F8E07102B070BD70B584B040F2CC05C7
:1032F000C2F200050446002128688DF808106426F3
:1033000002AAD02101230096FEF706FC28680DF1E1
:103310000902D02107230096FEF79EFA9DF80900C6
:10332000FEF772F89DF80A10A0700846FEF76CF8D8
:103330009DF80B1060700846FEF766F89DF80C10BB
:1033400020700846FEF760F89DF80D10E070084602
:10335000FEF75AF89DF80E1020710846FEF754F853
:103360009DF80F1060710846FEF74EF8A07104B08A
:1033700070BD000070B590F905E01722BEF1030F93
:103380000EFB02FE48F6396290F906C0C3F6E3026E
:103390008EFB022E0CF5FA6147F6E1220B46CAF6C7
:1033A0001462B8BF0CF2CF7383FB022448F21F52A1
:1033B000C5F2EB1283FB022590F904604FEA6E021E
:1033C00002EBDE72A8BF0CF2CE71324403EB9373B2
:1033D0006011114400EBD470EC1101EBA30104EB7C
:1033E000D5750844284442F293410430C9F249217A
:1033F00080FB011211188A1002EBD171A1EBC101FF
:103400000844C0B270BD000010B582B00446007A16
:1034100008218DF80510FEF705F8E1798DF8060012
:103420000846FDF7FFFF40F2CC01C2F20001096837
:103430008DF8070064240DF105020846D02103230E
:103440000094FEF769FB02B010BD000010B584B017
:103450000446807800218DF80810FDF7E3FF6178BD
:103460008DF809000846FDF7DDFF21788DF80A0088
:103470000846FDF7D7FFE1788DF80B000846FDF709
:10348000D1FF21798DF80C000846FDF7CBFF61795B
:103490008DF80D000846FDF7C5FFA1798DF80E00E7
:1034A0000846FDF7BFFF40F2CC01C2F200010968F7
:1034B0008DF80F00642402AA0846D0210823009446
:1034C000FEF72AFB04B010BDF0B58BB0FEF7F6F89E
:1034D00040F23817C2F200073968401AB0F5967FFB
:1034E00056D340F2C004C2F200042046FFF7FCFEAF
:1034F00040F20505C2F20005287894F90020B0FAE0
:1035000080F0400994F9013094F9026043F68A7121
:103510002870C0F6000107A80096FCF7C5FE2046FB
:10352000FFF728FF43F65471C0F6000194F9043008
:1035300094F9056094F9064001EB800243F6767138
:10354000C0F6000103A800960194FCF7ADFE2878B0
:1035500000B340F22C14C2F20004204600210422E1
:10356000FFF7C6FD43F69975C0F6000507AA204689
:103570002946FFF719FE204601210122FFF7B8FD79
:1035800003AA20462946FFF70FFEFEF797F838609A
:103590000BB0F0BD40F2B800C2F200000078013874
:1035A0000528D6D8DFE800F003080D12171C42F2F8
:1035B0002000ADF81C00CCE742F22000ADF81F005F
:1035C000C7E742F22000ADF82200C2E742F2200035
:1035D000ADF81000BDE742F22000ADF81300B8E7E7
:1035E0004FF02030CDF81600B3E7000090F800C08F
:1035F00043B10CF1010C4FFA8CF38B42D8BF6246F9
:1036000002707047ACF1010C4FFA8CF39342A8BFE3
:103610006146017070475FEA400C08BF91F0000FEF
:103620004FEA8C234FEAC12243EA51514FEA1C5022
:1036300018BF00F5F0404FEA300018BF41F00041DC
:103640005FEA6C5C00F02980BCF1FF3F08BF40F0EE
:1036500080407047130C06BF12044FF0100C4FF05F
:10366000000C130E04BF12020CF1080C130F04BF60
:1036700012010CF1040C930F04BF92000CF1020C28
:10368000D30F04BF52000CF1010C11464FF00002A1
:10369000A0F11F00A0EB0C00704711F0004F08BF15
:1036A000704731F000413FF4D5AF0B0C06BF090461
:1036B0004FF0100C4FF0000C0B0E04BF09020CF180
:1036C000080C0B0F04BF09010CF1040C8B0F04BF95
:1036D00089000CF1020CCB0F04BF49000CF1010C66
:1036E000CCF1200322FA03F341EA030102FA0CF2BF
:1036F000A0EB0C0000F10100704723F07F4720F0A1
:103700007F4C80EA030000F00040ACEB070303F5B8
:103710007C5303F1FF032DE9804909B44FEA1443B8
:1037200024EA03484FEA154B25EA0B4E0FF2042614
:1037300006EB13273E7803FB0667C7F5000707FB78
:1037400006F64FEAD64606F102064FEA543707FB63
:10375000066CCCF1005C4FEA1C472CEA074C0CFBD2
:1037600006F507FB06F404EB15464FEA96164908E2
:103770005FEA320234BF00204FF000404FEAD137F9
:1037800006FB07FC4FEA1C4C0CFB0BF7D21B03FBA0
:103790000CF761EB07010CFB0EF7B0EB074072EB87
:1037A00017420CFB08F734BFA2EB0742B2EB07420B
:1037B00061EB17414FEA0C444FEA910706FB07FC07
:1037C0004FEA1C4C0CFB0BF7B0EBC74072EB5732C7
:1037D00003FB0CF734BFA2EBC742B2EBC74261EB6D
:1037E00057310CFB0EF7B0EBC70072EB57720CFBB6
:1037F00008F734BFA2EBC702B2EBC70261EB577107
:103800004FEA816141EA92114FEA826242EA9012E4
:103810004FEA806004EBCC04039F4FEAD13706FBEC
:1038200007FC4FEA1C4C0CFB0BF7D21B03FB0CF7FD
:1038300061EB07010CFB0EF7B0EB074072EB174290
:103840000CFB08F734BFA2EB0742B2EB074261EB77
:1038500017414FEA8C5504EB9C244FEA910706FB75
:1038600007FC4FEA1C4C0CFB0BF7B0EBC74072EBAC
:10387000573203FB0CF734BFA2EBC742B2EBC7428F
:1038800061EB57310CFB0EF7B0EBC70072EB5772D0
:103890000CFB08F734BFA2EBC702B2EBC70261EB27
:1038A00057714FEA816141EA92114FEA826242EA1E
:1038B00090124FEA806015EB4C2544F100044FEA6A
:1038C000D13706FB07FC4FEA1C4C0CFB0BF7D21B55
:1038D00003FB0CF761EB07010CFB0EF7B0EB0740A5
:1038E00072EB17420CFB08F734BFA2EB0742B2EBB6
:1038F000074261EB17414FEA813141EA92414FEAB9
:10390000823242EA90424FEA80304FEA0C7615EB61
:103910001C1544F1000448EA03434EEA0B484FF0FB
:10392000000EB2EB080C71EB030724BF6246394668
:103930004EEB0E0E4FF0000B0018524149414BEB7D
:103940000B0BB2EB080C71EB03077BF1000B24BFF0
:10395000624639464EEB0E0E4FF0000B00185241F6
:1039600049414BEB0B0BB2EB080C71EB03077BF1FE
:10397000000B24BF624639464EEB0E0E51EA020799
:1039800018BF46F0010616EB0E7655F1000254F111
:10399000000103D5BDE88901BDE80088BDE88901C3
:1039A000BDE80048B619524141EB0101A3F1010302
:1039B000704780807F7E7D7C7B7A7978777676759C
:1039C0007473727171706F6E6E6D6C6C6B6A6A6914
:1039D0006868676666656464636362616160605FAE
:1039E0005F5E5E5D5D5C5C5B5B5A5A595958585727
:1039F000575656555555545453535252525151508F
:103A000050504F4F4F4E4E4D4D4D4C4C4C4B4B4BE1
:103A10004A4A4A4949494848484747474746464627
:103A20004545454444444443434343424242424162
:103A300041419C46002B30D477002BD04FEA37070A
:103A40001CB503B44FF010004FF01001BAF1000F95
:103A500006D0BCF1000FDCBF40F0080040F00801C8
:103A60004FF000000FBCBDE810400BF1010BBBF1A3
:103A7000010F08BF5FEA170722BF12F1010211F11F
:103A800001014FF0004143F1000300F0004043EA20
:103A900000007047F9D35708D0E746EA06464FEAD8
:103AA000164613F1400F1FDD13F1200FDFBF164341
:103AB0000A46002120335B42BED0C3F1200746EA0C
:103AC00006464FEA164602FA07F746EA070622FAC2
:103AD00003F2C3F1200701FA07F742EA070221FACD
:103AE00003F14FF00003A7E746EA020646EA06465E
:103AF0004FEA164646EA0106BCBF46EA0646360CC1
:103B00004FF000034FF000024FF0000194E72DE961
:103B1000804C70B49A46934691E8380007C831EA61
:103B2000400C48BF34EA430C03D5FFF7E6FDFFF72E
:103B300080FFF0BCBDE8008C2DE9804C70B49A4643
:103B4000934691E8380007C810F0804F08BF13F083
:103B5000804F03D100F005F8FFF76BFFF0BCBDE824
:103B6000008C20F07F4723F07F4C80EA030000F0B8
:103B7000004007EB0C03A3F57C53A3F1FE0392F086
:103B8000000F00F0B38095F0000F00F077802DE972
:103B900001494FEA114021EA00484FEA144624EA5D
:103BA000064700FB06FC08FB06F607FB08F818EBC7
:103BB00006484CEB164C00FB07F718EB07484CEB9C
:103BC00017404FEA124B22EA0B4E4FEA154625EA00
:103BD00006470BFB06FC0EFB06F607FB0EFE1EEB74
:103BE000064E4CEB164C0BFB07F71EEB074E4CEB4F
:103BF000174B18EB0B0840F1000018EB0E0B58EBBD
:103C0000000840F100008F1A4FF000014FF000064D
:103C10003CBFC943661B14BFB5EB040C00213CBF7D
:103C2000C943F61B4FEA174427EA04454FEA1C47ED
:103C30002CEA074C04FB076205FB07F70CFB05F6B3
:103C400016EB074642EB174204FB0CFC16EB0C4646
:103C500042EB1C421BEB060658EB020241414EEAC6
:103C60008E0E46EA9E0601D5BDE80189B61952417D
:103C700041EB0101A3F10103BDE801894FEA1445BD
:103C800024EA05464FEA114721EA074C05FB07F4F1
:103C900006FB07F70CFB06F111EB074144EB174459
:103CA00005FB0CFC11EB0C4144EB1C444FEA1247A2
:103CB00022EA074C05FB07F206FB07F70CFB06F6AA
:103CC00016EB074642EB174205FB0CFC16EB0C46C5
:103CD00042EB1C456A1854F1000148BF7047B61901
:103CE000524141EB0101A3F10103704795F0000F30
:103CF00037D04FEA114221EA02464FEA144724EA3C
:103D0000074C02FB07F106FB07F70CFB06F414EB6C
:103D1000074441EB174102FB0CFC14EB0C4441EB54
:103D20001C414FEA154725EA074C02FB07F506FB45
:103D300007F70CFB06F616EB074645EB174502FBAB
:103D40000CFC16EB0C4645EB1C42121951F100011C
:103D500048BF7047B619524141EB0101A3F101037D
:103D600070474FEA144524EA05464FEA114721EA15
:103D7000074C05FB07F106FB07F70CFB06F212EBFD
:103D8000074241EB174105FB0CFC12EB0C4251EBD7
:103D90001C414FF0000648BF7047921841EB0101EB
:103DA000A3F101037047490050EAC12018BF042065
:103DB0004A0D18BF40F0010040F2FF72B2EB515FB4
:103DC00008BF40F00200012808BF052070473038C6
:103DD0000A2801D2012070470020704710B5002941
:103DE0000AD00878002807D005487844FDF7C4FABF
:103DF000002801D0002010BD0248784410BD00000A
:103E0000D2010000CA01000010B500290AD00878CC
:103E1000002807D005487844FDF7AEFA002801D005
:103E2000002010BD0248784410BD0000C20100000F
:103E3000BA010000FCF7BFBEFCF7F4BF04000008A5
:103E4000000000000000000200010000100000005F
:103E500000000000000000003031323334353637C6
:103E600038394142434445464030580030313233BE
:103E700034353637383961626364656640307800BE
:103E800030313233343536373839616263646566D0
:103E90007870003031323334353637383941424367
:103EA000444546585000000002400000000000A0B9
:103EB0000000000005400000000000C800000000F5
:103EC0000C4000000000409C000000001940000071
:103ED0000020BCBE0000000034400000BFC91B8EA3
:103EE00000000004B5400000504BCFD06607E2CF81
:103EF000010000006C4100003E8251AADFEEA734B1
:103F000001000000D9420000DCB5A0E23A301F9762
:103F1000FFFFFFFFB4450000FD25A0C8E9A3C14F86
:103F2000FFFFFFFFFF3F00000000008000000000D7
:103F3000FF3F0000000000800000000000000000C3
:103F40000000000001020304060708090000000049
:103F50000102030453554E004D4F4E005455450089
:103F600057454400544855004652490053415400B7
:103F7000414C41524D00257320253032642F2530AD
:103F800032642F32302530326400253032643A25D5
:103F90003032643A2530326400257300E84000086E
:103FA000000000201000000028010008F840000870
:103FB0001000002040070000440100081C00000021
:103FC00043000000F8FFFFFF0C0000000E0000009F
:103FD0000F0000002E000000100100004300000050
:103FE000F8FFFFFF0040404040404040404041411A
:103FF00041414140404040404040404040404040BE
:104000004040404040050202020202020202020257
:104010000202020202202020202020202020200254
:1040200002020202020290909090909010101010E4
:104030001010101010101010101010101010101080
:104040000202020202028888888888880808080814
:1040500008080808080808080808080808080808E0
:104060000202020240000000000000000000000008
:104070000000000000000000000000000000000040
:104080000000000000000000000000000000000030
:104090000000000000000000000000000000000020
:1040A0000000000000000000000000000000000010
:1040B0000000000000000000000000000000000000
:1040C00000000000000000000000000000000000F0
:1040D00000000000000000000000000000000000E0
:1040E00000000000000000000024F40001010100B5
:0840F0001000000000000000B8
:04000005080000ED02
:00000001FF
